{
  "address": "0x0C579a42587AbabB60dc668d5e4C1C8A50082484",
  "abi": [
    {
      "inputs": [
        {
          "internalType": "address",
          "name": "_operator",
          "type": "address"
        },
        {
          "internalType": "bytes32",
          "name": "_rootNode",
          "type": "bytes32"
        },
        {
          "internalType": "contract INameWrapper",
          "name": "_nameWrapper",
          "type": "address"
        },
        {
          "internalType": "contract IEarthResolver",
          "name": "_resolver",
          "type": "address"
        },
        {
          "internalType": "contract IERC20",
          "name": "_baseToken",
          "type": "address"
        },
        {
          "internalType": "contract InsuranceFactory",
          "name": "_factory",
          "type": "address"
        },
        {
          "internalType": "contract IOptiDomainsAttestation",
          "name": "_attestation",
          "type": "address"
        }
      ],
      "stateMutability": "nonpayable",
      "type": "constructor"
    },
    {
      "anonymous": false,
      "inputs": [
        {
          "indexed": false,
          "internalType": "address",
          "name": "validator",
          "type": "address"
        },
        {
          "indexed": false,
          "internalType": "bytes32",
          "name": "node",
          "type": "bytes32"
        },
        {
          "indexed": false,
          "internalType": "uint256",
          "name": "acheivedTon",
          "type": "uint256"
        }
      ],
      "name": "AttestProgress",
      "type": "event"
    },
    {
      "anonymous": false,
      "inputs": [
        {
          "indexed": false,
          "internalType": "bytes32",
          "name": "node",
          "type": "bytes32"
        },
        {
          "indexed": false,
          "internalType": "bytes32",
          "name": "partner",
          "type": "bytes32"
        },
        {
          "indexed": false,
          "internalType": "string",
          "name": "name",
          "type": "string"
        },
        {
          "indexed": false,
          "internalType": "uint256",
          "name": "goalTon",
          "type": "uint256"
        },
        {
          "indexed": false,
          "internalType": "uint256",
          "name": "premium",
          "type": "uint256"
        }
      ],
      "name": "BuyInsurance",
      "type": "event"
    },
    {
      "anonymous": false,
      "inputs": [
        {
          "indexed": true,
          "internalType": "address",
          "name": "previousOwner",
          "type": "address"
        },
        {
          "indexed": true,
          "internalType": "address",
          "name": "newOwner",
          "type": "address"
        }
      ],
      "name": "OwnershipTransferred",
      "type": "event"
    },
    {
      "inputs": [
        {
          "internalType": "bytes32",
          "name": "node",
          "type": "bytes32"
        },
        {
          "internalType": "uint256",
          "name": "acheivedTon",
          "type": "uint256"
        }
      ],
      "name": "attestProgress",
      "outputs": [],
      "stateMutability": "nonpayable",
      "type": "function"
    },
    {
      "inputs": [],
      "name": "attestationDomain",
      "outputs": [
        {
          "internalType": "contract IOptiDomainsAttestation",
          "name": "",
          "type": "address"
        }
      ],
      "stateMutability": "view",
      "type": "function"
    },
    {
      "inputs": [],
      "name": "attestationStation",
      "outputs": [
        {
          "internalType": "contract AttestationStation",
          "name": "",
          "type": "address"
        }
      ],
      "stateMutability": "view",
      "type": "function"
    },
    {
      "inputs": [],
      "name": "baseToken",
      "outputs": [
        {
          "internalType": "contract IERC20",
          "name": "",
          "type": "address"
        }
      ],
      "stateMutability": "view",
      "type": "function"
    },
    {
      "inputs": [
        {
          "internalType": "bytes32",
          "name": "node",
          "type": "bytes32"
        },
        {
          "internalType": "bytes32",
          "name": "partner",
          "type": "bytes32"
        },
        {
          "internalType": "string",
          "name": "name",
          "type": "string"
        },
        {
          "internalType": "uint256",
          "name": "goalTon",
          "type": "uint256"
        },
        {
          "internalType": "uint256",
          "name": "premium",
          "type": "uint256"
        }
      ],
      "name": "buyInsurance",
      "outputs": [],
      "stateMutability": "nonpayable",
      "type": "function"
    },
    {
      "inputs": [
        {
          "internalType": "bytes32",
          "name": "node",
          "type": "bytes32"
        },
        {
          "internalType": "uint256",
          "name": "method",
          "type": "uint256"
        },
        {
          "internalType": "uint256",
          "name": "year",
          "type": "uint256"
        }
      ],
      "name": "deployPartner",
      "outputs": [],
      "stateMutability": "nonpayable",
      "type": "function"
    },
    {
      "inputs": [
        {
          "internalType": "address",
          "name": "_validator",
          "type": "address"
        },
        {
          "internalType": "bool",
          "name": "_enabled",
          "type": "bool"
        }
      ],
      "name": "deployValidator",
      "outputs": [],
      "stateMutability": "nonpayable",
      "type": "function"
    },
    {
      "inputs": [
        {
          "internalType": "bytes32",
          "name": "",
          "type": "bytes32"
        }
      ],
      "name": "domainOwner",
      "outputs": [
        {
          "internalType": "address",
          "name": "",
          "type": "address"
        }
      ],
      "stateMutability": "view",
      "type": "function"
    },
    {
      "inputs": [],
      "name": "factory",
      "outputs": [
        {
          "internalType": "contract InsuranceFactory",
          "name": "",
          "type": "address"
        }
      ],
      "stateMutability": "view",
      "type": "function"
    },
    {
      "inputs": [
        {
          "internalType": "bytes32",
          "name": "",
          "type": "bytes32"
        }
      ],
      "name": "insuranceDetail",
      "outputs": [
        {
          "internalType": "bytes32",
          "name": "partner",
          "type": "bytes32"
        },
        {
          "internalType": "uint256",
          "name": "goalMethod",
          "type": "uint256"
        },
        {
          "internalType": "uint256",
          "name": "goalYear",
          "type": "uint256"
        },
        {
          "internalType": "uint256",
          "name": "goalTon",
          "type": "uint256"
        },
        {
          "internalType": "uint256",
          "name": "acheivedTon",
          "type": "uint256"
        },
        {
          "internalType": "uint256",
          "name": "premium",
          "type": "uint256"
        }
      ],
      "stateMutability": "view",
      "type": "function"
    },
    {
      "inputs": [
        {
          "internalType": "bytes32[]",
          "name": "ids",
          "type": "bytes32[]"
        }
      ],
      "name": "insuranceDetails",
      "outputs": [
        {
          "components": [
            {
              "internalType": "bytes32",
              "name": "partner",
              "type": "bytes32"
            },
            {
              "internalType": "uint256",
              "name": "goalMethod",
              "type": "uint256"
            },
            {
              "internalType": "uint256",
              "name": "goalYear",
              "type": "uint256"
            },
            {
              "internalType": "uint256",
              "name": "goalTon",
              "type": "uint256"
            },
            {
              "internalType": "uint256",
              "name": "acheivedTon",
              "type": "uint256"
            },
            {
              "internalType": "uint256",
              "name": "premium",
              "type": "uint256"
            }
          ],
          "internalType": "struct EarthRegistrarController.InsuranceDetail[]",
          "name": "details",
          "type": "tuple[]"
        }
      ],
      "stateMutability": "view",
      "type": "function"
    },
    {
      "inputs": [
        {
          "internalType": "address",
          "name": "",
          "type": "address"
        }
      ],
      "name": "isValidator",
      "outputs": [
        {
          "internalType": "bool",
          "name": "",
          "type": "bool"
        }
      ],
      "stateMutability": "view",
      "type": "function"
    },
    {
      "inputs": [],
      "name": "nameWrapper",
      "outputs": [
        {
          "internalType": "contract INameWrapper",
          "name": "",
          "type": "address"
        }
      ],
      "stateMutability": "view",
      "type": "function"
    },
    {
      "inputs": [
        {
          "internalType": "address",
          "name": "",
          "type": "address"
        },
        {
          "internalType": "address",
          "name": "",
          "type": "address"
        },
        {
          "internalType": "uint256[]",
          "name": "",
          "type": "uint256[]"
        },
        {
          "internalType": "uint256[]",
          "name": "",
          "type": "uint256[]"
        },
        {
          "internalType": "bytes",
          "name": "",
          "type": "bytes"
        }
      ],
      "name": "onERC1155BatchReceived",
      "outputs": [
        {
          "internalType": "bytes4",
          "name": "",
          "type": "bytes4"
        }
      ],
      "stateMutability": "nonpayable",
      "type": "function"
    },
    {
      "inputs": [
        {
          "internalType": "address",
          "name": "",
          "type": "address"
        },
        {
          "internalType": "address",
          "name": "",
          "type": "address"
        },
        {
          "internalType": "uint256",
          "name": "",
          "type": "uint256"
        },
        {
          "internalType": "uint256",
          "name": "",
          "type": "uint256"
        },
        {
          "internalType": "bytes",
          "name": "",
          "type": "bytes"
        }
      ],
      "name": "onERC1155Received",
      "outputs": [
        {
          "internalType": "bytes4",
          "name": "",
          "type": "bytes4"
        }
      ],
      "stateMutability": "nonpayable",
      "type": "function"
    },
    {
      "inputs": [],
      "name": "owner",
      "outputs": [
        {
          "internalType": "address",
          "name": "",
          "type": "address"
        }
      ],
      "stateMutability": "view",
      "type": "function"
    },
    {
      "inputs": [
        {
          "internalType": "bytes32",
          "name": "",
          "type": "bytes32"
        }
      ],
      "name": "partnerGoal",
      "outputs": [
        {
          "internalType": "uint256",
          "name": "method",
          "type": "uint256"
        },
        {
          "internalType": "uint256",
          "name": "year",
          "type": "uint256"
        },
        {
          "internalType": "contract InsurancePool",
          "name": "pool",
          "type": "address"
        }
      ],
      "stateMutability": "view",
      "type": "function"
    },
    {
      "inputs": [
        {
          "internalType": "string",
          "name": "name",
          "type": "string"
        },
        {
          "internalType": "address",
          "name": "owner",
          "type": "address"
        },
        {
          "internalType": "uint64",
          "name": "expiration",
          "type": "uint64"
        },
        {
          "internalType": "bytes32",
          "name": "kycHash",
          "type": "bytes32"
        },
        {
          "internalType": "bytes",
          "name": "signature",
          "type": "bytes"
        }
      ],
      "name": "register",
      "outputs": [],
      "stateMutability": "nonpayable",
      "type": "function"
    },
    {
      "inputs": [],
      "name": "renounceOwnership",
      "outputs": [],
      "stateMutability": "nonpayable",
      "type": "function"
    },
    {
      "inputs": [],
      "name": "resolver",
      "outputs": [
        {
          "internalType": "contract IEarthResolver",
          "name": "",
          "type": "address"
        }
      ],
      "stateMutability": "view",
      "type": "function"
    },
    {
      "inputs": [],
      "name": "rootNode",
      "outputs": [
        {
          "internalType": "bytes32",
          "name": "",
          "type": "bytes32"
        }
      ],
      "stateMutability": "view",
      "type": "function"
    },
    {
      "inputs": [
        {
          "internalType": "bytes4",
          "name": "interfaceId",
          "type": "bytes4"
        }
      ],
      "name": "supportsInterface",
      "outputs": [
        {
          "internalType": "bool",
          "name": "",
          "type": "bool"
        }
      ],
      "stateMutability": "view",
      "type": "function"
    },
    {
      "inputs": [],
      "name": "takeoverRootNode",
      "outputs": [],
      "stateMutability": "nonpayable",
      "type": "function"
    },
    {
      "inputs": [
        {
          "internalType": "address",
          "name": "newOwner",
          "type": "address"
        }
      ],
      "name": "transferOwnership",
      "outputs": [],
      "stateMutability": "nonpayable",
      "type": "function"
    }
  ],
  "transactionHash": "0xabaf1b4c503a1021a2efe75422ff72ecd522a1a5f0c71ba89cb59b900434b1b2",
  "args": [
    "0x35D3935C54430e5D661F253e1A1fFc147b9dDd77",
    "0x205f4a8557dd0db1ef6d10050f4306b94c7ebb3c4ae9ea761eb8dfafc1ed27d5",
    "0x90b765bcb20121828Ec92ef957645d86722D16cA",
    "0x1eBC01F781d25108D6f7D6DF290E7F53EaA60FD8",
    "0x377e53b8BB022Cc52CD27CE314F5D17DA5b52Be7",
    "0x7688E389C0dE9106123f56c11254C7e4c2AA3bd4",
    "0xF54e60b6926504A2Ce79214274201257a19e8FD7"
  ],
  "numDeployments": 1,
  "solcInputHash": "226fddf1c1505548dad9a0c0897f87e3",
  "bytecode": "0x6101808060405234620002295760e08162001f1b80380380916200002482856200022e565b833981010312620002295780516001600160a01b039190828116810362000229576020820151604083015193808516850362000229576060840151818116810362000229576080850151958287168703620002295760a0860151958387168703620002295760c001519483861680870362000229576020926004916000958654923360018060a01b03198516178855604051998a9687958b3391167f8be0079c531659141344cd1fd0a4f28419497f9722a3daafe3b4186f6b6457e08c80a360805260a05260c05260e0526101009a8b52610120998a526101609889526332d0577160e11b82525afa9283156200021c578193620001cf575b50505061014090815260405192611cb2948562000269863960805185505060a05185818161014001528181610f050152611280015260c05185818161050901528181610a4d01528181610f7c0152611236015260e051858181610fd101526117760152518481816103c2015281816107e4015261152201525183818161040601526115b901525182818161064401528181610b3101526111ee01525181818161028e015281816107290152610c100152f35b909192506020813d821162000213575b81620001ee602093836200022e565b810103126200020f575191821682036200020c57503880806200011d565b80fd5b5080fd5b3d9150620001df565b50604051903d90823e3d90fd5b600080fd5b601f909101601f19168101906001600160401b038211908210176200025257604052565b634e487b7160e01b600052604160045260246000fdfe608080604052600436101561001357600080fd5b600090813560e01c90816301ffc9a71461179a5750806304f3bcec14611756578063066d872d146114875780631536c29d146112d7578063212a197e1461121257806365a0aee2146111ce578063715018a61461116757806378f5ddb314610e9f57806382dcc52a14610e545780638da5cb5b14610e2e578063a43ba55514610dd9578063a7d7f17214610a71578063a8e5fbc014610a2d578063ae65f3d4146104b8578063bc197c811461042a578063c45a0155146103e6578063c55dae63146103a2578063d26cdd201461036f578063e001e6ea1461030d578063f23a6e61146102b2578063f2d92dec1461026e578063f2fde38b146101a3578063facd743b146101665763faff50a81461012957600080fd5b3461016357806003193601126101635760206040517f00000000000000000000000000000000000000000000000000000000000000008152f35b80fd5b50346101635760203660031901126101635760ff60406020926001600160a01b0361018f611833565b168152600184522054166040519015158152f35b5034610163576020366003190112610163576101bd611833565b6101c5611982565b6001600160a01b0380911690811561021a57600054826bffffffffffffffffffffffff60a01b821617600055167f8be0079c531659141344cd1fd0a4f28419497f9722a3daafe3b4186f6b6457e0600080a380f35b60405162461bcd60e51b815260206004820152602660248201527f4f776e61626c653a206e6577206f776e657220697320746865207a65726f206160448201526564647265737360d01b6064820152608490fd5b503461016357806003193601126101635760206040516001600160a01b037f0000000000000000000000000000000000000000000000000000000000000000168152f35b50346101635760a0366003190112610163576102cc611833565b506102d561181d565b5060843567ffffffffffffffff8111610309576102f6903690600401611964565b5060405163f23a6e6160e01b8152602090f35b5080fd5b503461016357602036600319011261016357604060c091600435815260036020522080549060018101549060028101546003820154906005600484015493015493604051958652602086015260408501526060840152608083015260a0820152f35b5034610163576020366003190112610163576001600160a01b036040602092600435815260048452205416604051908152f35b503461016357806003193601126101635760206040516001600160a01b037f0000000000000000000000000000000000000000000000000000000000000000168152f35b503461016357806003193601126101635760206040516001600160a01b037f0000000000000000000000000000000000000000000000000000000000000000168152f35b50346101635760a036600319011261016357610444611833565b5061044d61181d565b5067ffffffffffffffff6044358181116104b45761046f9036906004016118b3565b506064358181116104b4576104889036906004016118b3565b50608435908111610309576104a1903690600401611964565b5060405163bc197c8160e01b8152602090f35b8280fd5b50346101635760a03660031901126101635760443567ffffffffffffffff8111610309576104ea9036906004016117ef565b90602435835260026020526040832054156109f7576001600160a01b037f0000000000000000000000000000000000000000000000000000000000000000166040516331a9108f60e11b81526004356004820152602081602481855afa9081156109ec5785916109ae575b506301e133804201421161099a5761059e859260209260405194858094819363632c704360e11b835267ffffffffffffffff6301e13380420116908b8b600435600487016119fb565b03925af1801561091c5761096a575b506024358352600260205260408320546001604085200154604051916105d283611849565b602435835260208301526040820152606435606082015260056080820185815260a08301906084358252600435875260036020526060604088209480518655602081015160018701556040810151600287015501516003850155516004840155519101558261071d6001600160a01b037f000000000000000000000000000000000000000000000000000000000000000016826106b86106c6604083206040519283916020830191909160a0600560c083019480548452600181015460208501526002810154604085015260038101546060850152600481015460808501520154910152565b03601f198101835282611879565b60405180948192634e60455360e11b835260043560048401527fe4c10e58a176748dda145aa57e6abec4c4e6c685fb8555cbc8713ba02d654c82602484015260046044840152608060648401526084830190611ba5565b03816001600160a01b037f0000000000000000000000000000000000000000000000000000000000000000165afa91821561095f57839261093b575b50803b156104b4576040516305eb5ea160e41b815291839183918290849082906107869060048301611bca565b03925af180156108d557610927575b5050602435835260026020526001600160a01b03600260408520015416604051906323b872dd60e01b825233600483015260248201526084356044820152602081606481876001600160a01b037f0000000000000000000000000000000000000000000000000000000000000000165af1801561091c576108e0575b5060243583526002602052826001600160a01b03600260408320015416803b15610309578180916024604051809481936391c05b0b60e01b835260843560048401525af180156108d5576108c1575b50507fb8bd2868865b974a919a9842a11870a45a184ceed24623d61e47e794cfbb20ea916108ab6040519283926004358452602435602085015260a0604085015260a08401916119da565b606435606083015260843560808301520390a180f35b6108ca90611865565b6104b4578238610860565b6040513d84823e3d90fd5b6020813d602011610914575b816108f960209383611879565b810103126109105751801515036104b45738610811565b8380fd5b3d91506108ec565b6040513d86823e3d90fd5b61093090611865565b6104b4578238610795565b6109589192503d8085833e6109508183611879565b810190611a76565b9038610759565b6040513d85823e3d90fd5b602090813d8311610993575b6109808183611879565b8101031261098e57386105ad565b600080fd5b503d610976565b634e487b7160e01b85526011600452602485fd5b90506020813d6020116109e4575b816109c960209383611879565b810103126109e0576109da90611a3f565b38610555565b8480fd5b3d91506109bc565b6040513d87823e3d90fd5b60405162461bcd60e51b815260206004820152600e60248201526d139bdd081c9959da5cdd195c995960921b6044820152606490fd5b503461016357806003193601126101635760206040516001600160a01b037f0000000000000000000000000000000000000000000000000000000000000000168152f35b50346101635760403660031901126101635760043560243533835260206001815260ff60408520541615610da357610c0c84918483526003815260408320600581549160018101546002820154918360038201549101549260405195610ad687611849565b8652868601928352604086019081526060860191825260808601928a845260a087019485528b8a526003885260408a2096518755516001870155516002860155516003850155516004840155519101556001600160a01b03807f0000000000000000000000000000000000000000000000000000000000000000169184610ba26040822060405191829185830191909160a0600560c083019480548452600181015460208501526002810154604085015260038101546060850152600481015460808501520154910152565b0393610bb6601f1995868101845283611879565b6040518080988194634e60455360e11b83528d60048401527fe4c10e58a176748dda145aa57e6abec4c4e6c685fb8555cbc8713ba02d654c82602484015260046044840152608060648401526084830190611ba5565b03917f0000000000000000000000000000000000000000000000000000000000000000165afa9384156109ec578594610d87575b50823b156109e05784610c6794604051809681926305eb5ea160e41b835260048301611bca565b038183875af180156109ec5787948691610d6c575b5050604080513392810192835260208301959095528101869052610cac9190849060600103908101845283611879565b803b156104b457604051633815cef760e11b81523360048201527fa898e2ebee90d5ca3818737c4ecc4182a27e1396a211657e6e7d5819bea606206024820152606060448201529183918391829084908290610d0c906064830190611ba5565b03925af180156108d557610d58575b50506040805133815260208101939093528201527f236294fdf92f6d8005b8fba01fc5d7a1964146d62f420e6423c6b9afb5c399fc90606090a180f35b610d6190611865565b6104b4578238610d1b565b610d799192939550611865565b610910579185928438610c7c565b610d9c9194503d8087833e6109508183611879565b9238610c40565b6064906040519062461bcd60e51b82526004820152600f60248201526e2737ba1030903b30b634b230ba37b960891b6044820152fd5b503461016357604036600319011261016357610df3611833565b602435908115158092036104b4576001600160a01b0390610e12611982565b1682526001602052604082209060ff8019835416911617905580f35b50346101635780600319360112610163576001600160a01b036020915416604051908152f35b503461016357602036600319011261016357604060609160043581526002602052208054906001600160a01b0360026001830154920154169060405192835260208301526040820152f35b50346101635760a03660031901126101635767ffffffffffffffff6004358181116104b457610ed29036906004016117ef565b90610edb61181d565b926044359181831683036111635760843582811161115f57610f019036906004016117ef565b50507f000000000000000000000000000000000000000000000000000000000000000093610f3036828461192d565b9283516020809501209260405190858201948886526040830152604082526060820192828410908411176111495782869183610fb68d9884604052825190209a6001600160a01b039c8d7f0000000000000000000000000000000000000000000000000000000000000000169963632c704360e11b8752605f19953092606487016119fb565b03018187875af191821561091c578592611116575b505050847f00000000000000000000000000000000000000000000000000000000000000001690803b156104b457604051630c4b7b8560e11b8152600481018690526001600160a01b03831660248201529083908290604490829084905af190811561095f578391611102575b5050803b156103095760405162d5fa2b60e81b8152600481018590526001600160a01b0387166024820152828160448183865af190811561095f5783916110ee575b5050803b15610309578180916044604051809481936338025bcf60e21b835289600484015260643560248401525af180156108d5576110da575b509160049252526040832091166bffffffffffffffffffffffff60a01b82541617905580f35b6110e390611865565b6109e05784386110b4565b6110f790611865565b61030957813861107a565b61110b90611865565b610309578138611038565b909180939450903d8411611141575b8161112f91611879565b8101031261098e578590823880610fcb565b3d9150611125565b634e487b7160e01b600052604160045260246000fd5b8680fd5b8580fd5b5034610163578060031936011261016357611180611982565b6000805473ffffffffffffffffffffffffffffffffffffffff19811682556001600160a01b03167f8be0079c531659141344cd1fd0a4f28419497f9722a3daafe3b4186f6b6457e08280a380f35b503461016357806003193601126101635760206040516001600160a01b037f0000000000000000000000000000000000000000000000000000000000000000168152f35b503461016357806003193601126101635761122b611982565b806001600160a01b037f000000000000000000000000000000000000000000000000000000000000000016803b156112d457819060c460405180948193637921219560e11b83523060048401523360248401527f000000000000000000000000000000000000000000000000000000000000000060448401526001606484015260a060848401528160a48401525af180156108d5576112c8575080f35b6112d190611865565b80f35b50fd5b503461016357602080600319360112610309576004359167ffffffffffffffff808411610309573660238501121561030957836004013590811161030957600560243683831b8701820111610910576113328396949661189b565b936113406040519586611879565b838552601f1961134f8561189b565b01875b818110611447575050865b8481106113d257604080518881528751818a01819052888a01928201908a8c5b82811061138a5784840385f35b855180518552808301518584015260408082015190860152606080820151908601526080808201519086015260a090810151908501529481019460c09093019260010161137d565b8083600192869a989a1b84010135875260038089528560408920604051926113f984611849565b81548452858201548c85015260028201546040850152810154606084015260048101546080840152015460a0820152611432828b611c52565b5261143d818a611c52565b500196949661135d565b879060409997995161145881611849565b88815288838201528860408201528860608201528860808201528860a082015282828c01015201979597611352565b50346101635760603660031901126101635760043560249081359160443583156117215780156116ee578285526020600481526001600160a01b03938460408820541633036116be578087526004825260408720548516956107ed1984018481116116ab576301e22d8090808202918204036116ab576370dbe8209081018091116116ab576040519763dabc945960e01b89526004890152867f00000000000000000000000000000000000000000000000000000000000000001686890152886044890152886064890152886084890152610dac60a48901528860c489015260e488015261014061010488015260096101448801526807066705c8ac2e4e8d60bb1b61016488015261018061012488015260056101848801526408a82a4a8960db1b6101a488015282876101c4818b8a7f0000000000000000000000000000000000000000000000000000000000000000165af19687156116a0578897611664575b5060405194606086019086821067ffffffffffffffff831117611652575091600295949391869360405285528185019384528660408601981688528852526040862091518255516001820155019151166bffffffffffffffffffffffff60a01b82541617905580f35b634e487b7160e01b8a52604160045289fd5b9096508281813d8311611699575b61167c8183611879565b81010312611695575185811681036116955795386115e9565b8780fd5b503d611672565b6040513d8a823e3d90fd5b634e487b7160e01b895260116004528589fd5b60405162461bcd60e51b815260048101839052600981860152682737ba1037bbb732b960b91b6044820152606490fd5b60405162461bcd60e51b815260206004820152600c818401526b2ab735b737bbb7103cb2b0b960a11b6044820152606490fd5b60405162461bcd60e51b815260206004820152600e818401526d155b9adb9bdddb881b595d1a1bd960921b6044820152606490fd5b503461016357806003193601126101635760206040516001600160a01b037f0000000000000000000000000000000000000000000000000000000000000000168152f35b9050346103095760203660031901126103095760043563ffffffff60e01b81168091036104b45760209250630271189760e51b81149081156117de575b5015158152f35b6301ffc9a760e01b149050386117d7565b9181601f8401121561098e5782359167ffffffffffffffff831161098e576020838186019501011161098e57565b602435906001600160a01b038216820361098e57565b600435906001600160a01b038216820361098e57565b60c0810190811067ffffffffffffffff82111761114957604052565b67ffffffffffffffff811161114957604052565b90601f8019910116810190811067ffffffffffffffff82111761114957604052565b67ffffffffffffffff81116111495760051b60200190565b81601f8201121561098e578035916118ca8361189b565b926118d86040519485611879565b808452602092838086019260051b82010192831161098e578301905b828210611902575050505090565b813581529083019083016118f4565b67ffffffffffffffff811161114957601f01601f191660200190565b92919261193982611911565b916119476040519384611879565b82948184528183011161098e578281602093846000960137010152565b9080601f8301121561098e5781602061197f9335910161192d565b90565b6001600160a01b0360005416330361199657565b606460405162461bcd60e51b815260206004820152602060248201527f4f776e61626c653a2063616c6c6572206973206e6f7420746865206f776e65726044820152fd5b908060209392818452848401376000828201840152601f01601f1916010190565b93959490611a2b67ffffffffffffffff936080956001600160a01b0393885260a0602089015260a08801916119da565b961660408501526000606085015216910152565b51906001600160a01b038216820361098e57565b60005b838110611a665750506000910152565b8181015183820152602001611a56565b90602090818382031261098e57825167ffffffffffffffff9384821161098e57019080601f8301121561098e578151611aae8161189b565b94604092611abe84519788611879565b828752858088019360051b8601019481861161098e57868101935b868510611aeb57505050505050505090565b845184811161098e57820160609081601f19828703011261098e5787519180830183811088821117611b90578952611b248b8301611a3f565b8352888201518b8401528101519086821161098e57019184603f8401121561098e578983015191611b5483611911565b611b608a519182611879565b838152868a858701011161098e57611b818c959486958c8785019101611a53565b89820152815201940193611ad9565b60246000634e487b7160e01b81526041600452fd5b90602091611bbe81518092818552858086019101611a53565b601f01601f1916010190565b602080820190808352835180925260409283810182858560051b8401019601946000925b858410611bff575050505050505090565b909192939495968580611c41600193603f19868203018852868c516001600160a01b038151168352848101518584015201519060609081898201520190611ba5565b990194019401929594939190611bee565b8051821015611c665760209160051b010190565b634e487b7160e01b600052603260045260246000fdfea264697066735822122047ab0b421ba828c92c833ddc93de82192b1515c006cd6cd7a3ab06f81fd2760c64736f6c63430008110033",
  "devdoc": {
    "kind": "dev",
    "methods": {
      "owner()": {
        "details": "Returns the address of the current owner."
      },
      "renounceOwnership()": {
        "details": "Leaves the contract without owner. It will not be possible to call `onlyOwner` functions anymore. Can only be called by the current owner. NOTE: Renouncing ownership will leave the contract without an owner, thereby removing any functionality that is only available to the owner."
      },
      "supportsInterface(bytes4)": {
        "details": "See {IERC165-supportsInterface}."
      },
      "transferOwnership(address)": {
        "details": "Transfers ownership of the contract to a new account (`newOwner`). Can only be called by the current owner."
      }
    },
    "version": 1
  },
  "userdoc": {
    "kind": "user",
    "methods": {},
    "version": 1
  },
  "storageLayout": {
    "storage": [
      {
        "astId": 1349,
        "contract": "contracts/EarthRegistrarController.sol:EarthRegistrarController",
        "label": "_owner",
        "offset": 0,
        "slot": "0",
        "type": "t_address"
      },
      {
        "astId": 4132,
        "contract": "contracts/EarthRegistrarController.sol:EarthRegistrarController",
        "label": "isValidator",
        "offset": 0,
        "slot": "1",
        "type": "t_mapping(t_address,t_bool)"
      },
      {
        "astId": 4167,
        "contract": "contracts/EarthRegistrarController.sol:EarthRegistrarController",
        "label": "partnerGoal",
        "offset": 0,
        "slot": "2",
        "type": "t_mapping(t_bytes32,t_struct(PartnerGoal)4162_storage)"
      },
      {
        "astId": 4185,
        "contract": "contracts/EarthRegistrarController.sol:EarthRegistrarController",
        "label": "insuranceDetail",
        "offset": 0,
        "slot": "3",
        "type": "t_mapping(t_bytes32,t_struct(InsuranceDetail)4180_storage)"
      },
      {
        "astId": 4189,
        "contract": "contracts/EarthRegistrarController.sol:EarthRegistrarController",
        "label": "domainOwner",
        "offset": 0,
        "slot": "4",
        "type": "t_mapping(t_bytes32,t_address)"
      }
    ],
    "types": {
      "t_address": {
        "encoding": "inplace",
        "label": "address",
        "numberOfBytes": "20"
      },
      "t_bool": {
        "encoding": "inplace",
        "label": "bool",
        "numberOfBytes": "1"
      },
      "t_bytes32": {
        "encoding": "inplace",
        "label": "bytes32",
        "numberOfBytes": "32"
      },
      "t_contract(InsurancePool)6168": {
        "encoding": "inplace",
        "label": "contract InsurancePool",
        "numberOfBytes": "20"
      },
      "t_mapping(t_address,t_bool)": {
        "encoding": "mapping",
        "key": "t_address",
        "label": "mapping(address => bool)",
        "numberOfBytes": "32",
        "value": "t_bool"
      },
      "t_mapping(t_bytes32,t_address)": {
        "encoding": "mapping",
        "key": "t_bytes32",
        "label": "mapping(bytes32 => address)",
        "numberOfBytes": "32",
        "value": "t_address"
      },
      "t_mapping(t_bytes32,t_struct(InsuranceDetail)4180_storage)": {
        "encoding": "mapping",
        "key": "t_bytes32",
        "label": "mapping(bytes32 => struct EarthRegistrarController.InsuranceDetail)",
        "numberOfBytes": "32",
        "value": "t_struct(InsuranceDetail)4180_storage"
      },
      "t_mapping(t_bytes32,t_struct(PartnerGoal)4162_storage)": {
        "encoding": "mapping",
        "key": "t_bytes32",
        "label": "mapping(bytes32 => struct EarthRegistrarController.PartnerGoal)",
        "numberOfBytes": "32",
        "value": "t_struct(PartnerGoal)4162_storage"
      },
      "t_struct(InsuranceDetail)4180_storage": {
        "encoding": "inplace",
        "label": "struct EarthRegistrarController.InsuranceDetail",
        "members": [
          {
            "astId": 4169,
            "contract": "contracts/EarthRegistrarController.sol:EarthRegistrarController",
            "label": "partner",
            "offset": 0,
            "slot": "0",
            "type": "t_bytes32"
          },
          {
            "astId": 4171,
            "contract": "contracts/EarthRegistrarController.sol:EarthRegistrarController",
            "label": "goalMethod",
            "offset": 0,
            "slot": "1",
            "type": "t_uint256"
          },
          {
            "astId": 4173,
            "contract": "contracts/EarthRegistrarController.sol:EarthRegistrarController",
            "label": "goalYear",
            "offset": 0,
            "slot": "2",
            "type": "t_uint256"
          },
          {
            "astId": 4175,
            "contract": "contracts/EarthRegistrarController.sol:EarthRegistrarController",
            "label": "goalTon",
            "offset": 0,
            "slot": "3",
            "type": "t_uint256"
          },
          {
            "astId": 4177,
            "contract": "contracts/EarthRegistrarController.sol:EarthRegistrarController",
            "label": "acheivedTon",
            "offset": 0,
            "slot": "4",
            "type": "t_uint256"
          },
          {
            "astId": 4179,
            "contract": "contracts/EarthRegistrarController.sol:EarthRegistrarController",
            "label": "premium",
            "offset": 0,
            "slot": "5",
            "type": "t_uint256"
          }
        ],
        "numberOfBytes": "192"
      },
      "t_struct(PartnerGoal)4162_storage": {
        "encoding": "inplace",
        "label": "struct EarthRegistrarController.PartnerGoal",
        "members": [
          {
            "astId": 4156,
            "contract": "contracts/EarthRegistrarController.sol:EarthRegistrarController",
            "label": "method",
            "offset": 0,
            "slot": "0",
            "type": "t_uint256"
          },
          {
            "astId": 4158,
            "contract": "contracts/EarthRegistrarController.sol:EarthRegistrarController",
            "label": "year",
            "offset": 0,
            "slot": "1",
            "type": "t_uint256"
          },
          {
            "astId": 4161,
            "contract": "contracts/EarthRegistrarController.sol:EarthRegistrarController",
            "label": "pool",
            "offset": 0,
            "slot": "2",
            "type": "t_contract(InsurancePool)6168"
          }
        ],
        "numberOfBytes": "96"
      },
      "t_uint256": {
        "encoding": "inplace",
        "label": "uint256",
        "numberOfBytes": "32"
      }
    }
  }
}