{
  "address": "0x377e53b8BB022Cc52CD27CE314F5D17DA5b52Be7",
  "abi": [
    {
      "inputs": [],
      "stateMutability": "nonpayable",
      "type": "constructor"
    },
    {
      "anonymous": false,
      "inputs": [
        {
          "indexed": true,
          "internalType": "address",
          "name": "owner",
          "type": "address"
        },
        {
          "indexed": true,
          "internalType": "address",
          "name": "spender",
          "type": "address"
        },
        {
          "indexed": false,
          "internalType": "uint256",
          "name": "value",
          "type": "uint256"
        }
      ],
      "name": "Approval",
      "type": "event"
    },
    {
      "anonymous": false,
      "inputs": [
        {
          "indexed": true,
          "internalType": "address",
          "name": "from",
          "type": "address"
        },
        {
          "indexed": true,
          "internalType": "address",
          "name": "to",
          "type": "address"
        },
        {
          "indexed": false,
          "internalType": "uint256",
          "name": "value",
          "type": "uint256"
        }
      ],
      "name": "Transfer",
      "type": "event"
    },
    {
      "inputs": [
        {
          "internalType": "address",
          "name": "owner",
          "type": "address"
        },
        {
          "internalType": "address",
          "name": "spender",
          "type": "address"
        }
      ],
      "name": "allowance",
      "outputs": [
        {
          "internalType": "uint256",
          "name": "",
          "type": "uint256"
        }
      ],
      "stateMutability": "view",
      "type": "function"
    },
    {
      "inputs": [
        {
          "internalType": "address",
          "name": "spender",
          "type": "address"
        },
        {
          "internalType": "uint256",
          "name": "amount",
          "type": "uint256"
        }
      ],
      "name": "approve",
      "outputs": [
        {
          "internalType": "bool",
          "name": "",
          "type": "bool"
        }
      ],
      "stateMutability": "nonpayable",
      "type": "function"
    },
    {
      "inputs": [
        {
          "internalType": "address",
          "name": "account",
          "type": "address"
        }
      ],
      "name": "balanceOf",
      "outputs": [
        {
          "internalType": "uint256",
          "name": "",
          "type": "uint256"
        }
      ],
      "stateMutability": "view",
      "type": "function"
    },
    {
      "inputs": [
        {
          "internalType": "bool",
          "name": "blocking",
          "type": "bool"
        }
      ],
      "name": "blockTransfer",
      "outputs": [],
      "stateMutability": "nonpayable",
      "type": "function"
    },
    {
      "inputs": [],
      "name": "blocked",
      "outputs": [
        {
          "internalType": "bool",
          "name": "",
          "type": "bool"
        }
      ],
      "stateMutability": "view",
      "type": "function"
    },
    {
      "inputs": [],
      "name": "decimals",
      "outputs": [
        {
          "internalType": "uint8",
          "name": "",
          "type": "uint8"
        }
      ],
      "stateMutability": "view",
      "type": "function"
    },
    {
      "inputs": [
        {
          "internalType": "address",
          "name": "spender",
          "type": "address"
        },
        {
          "internalType": "uint256",
          "name": "subtractedValue",
          "type": "uint256"
        }
      ],
      "name": "decreaseAllowance",
      "outputs": [
        {
          "internalType": "bool",
          "name": "",
          "type": "bool"
        }
      ],
      "stateMutability": "nonpayable",
      "type": "function"
    },
    {
      "inputs": [
        {
          "internalType": "address",
          "name": "spender",
          "type": "address"
        },
        {
          "internalType": "uint256",
          "name": "addedValue",
          "type": "uint256"
        }
      ],
      "name": "increaseAllowance",
      "outputs": [
        {
          "internalType": "bool",
          "name": "",
          "type": "bool"
        }
      ],
      "stateMutability": "nonpayable",
      "type": "function"
    },
    {
      "inputs": [
        {
          "internalType": "address",
          "name": "to",
          "type": "address"
        },
        {
          "internalType": "uint256",
          "name": "amount",
          "type": "uint256"
        }
      ],
      "name": "mint",
      "outputs": [
        {
          "internalType": "bool",
          "name": "",
          "type": "bool"
        }
      ],
      "stateMutability": "nonpayable",
      "type": "function"
    },
    {
      "inputs": [],
      "name": "name",
      "outputs": [
        {
          "internalType": "string",
          "name": "",
          "type": "string"
        }
      ],
      "stateMutability": "view",
      "type": "function"
    },
    {
      "inputs": [],
      "name": "noReturnData",
      "outputs": [
        {
          "internalType": "bool",
          "name": "",
          "type": "bool"
        }
      ],
      "stateMutability": "view",
      "type": "function"
    },
    {
      "inputs": [
        {
          "internalType": "bool",
          "name": "noReturn",
          "type": "bool"
        }
      ],
      "name": "setNoReturnData",
      "outputs": [],
      "stateMutability": "nonpayable",
      "type": "function"
    },
    {
      "inputs": [],
      "name": "symbol",
      "outputs": [
        {
          "internalType": "string",
          "name": "",
          "type": "string"
        }
      ],
      "stateMutability": "view",
      "type": "function"
    },
    {
      "inputs": [],
      "name": "totalSupply",
      "outputs": [
        {
          "internalType": "uint256",
          "name": "",
          "type": "uint256"
        }
      ],
      "stateMutability": "view",
      "type": "function"
    },
    {
      "inputs": [
        {
          "internalType": "address",
          "name": "to",
          "type": "address"
        },
        {
          "internalType": "uint256",
          "name": "amount",
          "type": "uint256"
        }
      ],
      "name": "transfer",
      "outputs": [
        {
          "internalType": "bool",
          "name": "",
          "type": "bool"
        }
      ],
      "stateMutability": "nonpayable",
      "type": "function"
    },
    {
      "inputs": [
        {
          "internalType": "address",
          "name": "from",
          "type": "address"
        },
        {
          "internalType": "address",
          "name": "to",
          "type": "address"
        },
        {
          "internalType": "uint256",
          "name": "amount",
          "type": "uint256"
        }
      ],
      "name": "transferFrom",
      "outputs": [
        {
          "internalType": "bool",
          "name": "ok",
          "type": "bool"
        }
      ],
      "stateMutability": "nonpayable",
      "type": "function"
    }
  ],
  "transactionHash": "0x2a3bd45828dd5f1689dfe021c6e3dcaae58de9b5327231bc0e09931b758c6591",
  "args": [],
  "numDeployments": 1,
  "solcInputHash": "13e8bd079ad6e1fb5cfa36154c755e23",
  "bytecode": "0x60803462000344576040906001600160401b0390808301828111828210176200032e578352600981526020916846616b65205553444360b81b83830152835192848401848110838211176200032e578552600493848152635553444360e01b8282015283519083821162000319576003928354926001968785811c951680156200030e575b83861014620002f9578190601f95868111620002a3575b5083908683116001146200023c5760009262000230575b505060001982871b1c191690871b1784555b81519485116200021b5786548681811c9116801562000210575b82821014620001fb57838111620001b0575b508092851160011462000142575093839491849260009562000136575b50501b92600019911b1c19161790555b61ffff196005541660055551610c0e90816200034a8239f35b0151935038806200010d565b92919084601f1981168860005285600020956000905b898383106200019557505050106200017a575b50505050811b0190556200011d565b01519060f884600019921b161c19169055388080806200016b565b85870151895590970196948501948893509081019062000158565b87600052816000208480880160051c820192848910620001f1575b0160051c019087905b828110620001e4575050620000f0565b60008155018790620001d4565b92508192620001cb565b602288634e487b7160e01b6000525260246000fd5b90607f1690620000de565b604187634e487b7160e01b6000525260246000fd5b015190503880620000b2565b90899350601f1983169188600052856000209260005b878282106200028c575050841162000273575b505050811b018455620000c4565b015160001983891b60f8161c1916905538808062000265565b8385015186558d9790950194938401930162000252565b90915086600052836000208680850160051c820192868610620002ef575b918b91869594930160051c01915b828110620002df5750506200009b565b600081558594508b9101620002cf565b92508192620002c1565b602289634e487b7160e01b6000525260246000fd5b94607f169462000084565b604186634e487b7160e01b6000525260246000fd5b634e487b7160e01b600052604160045260246000fd5b600080fdfe60806040526004361015610013575b600080fd5b60003560e01c806306fdde0314610153578063095ea7b31461014a57806318160ddd146101415780631b2438451461013857806323b872dd1461012f578063303bdd2c14610126578063313ce5671461011d578063395093511461011457806340c10f191461010b57806370a082311461010257806395d89b41146100f9578063a457c2d7146100f0578063a9059cbb146100e7578063cd1b5b71146100de578063dd62ed3e146100d55763e074d6a9146100cd57600080fd5b61000e6107a1565b5061000e610743565b5061000e610718565b5061000e6106d6565b5061000e61061a565b5061000e610556565b5061000e61051b565b5061000e61042b565b5061000e6103d1565b5061000e6103b4565b5061000e610390565b5061000e610356565b5061000e61032f565b5061000e610310565b5061000e6102de565b5061000e6101a5565b6020808252825181830181905290939260005b82811061019157505060409293506000838284010152601f8019910116010190565b81810186015184820160400152850161016f565b503461000e576000806003193601126102af5760405190806003549060019180831c928082169283156102a5575b60209283861085146102915785885260208801949081156102705750600114610217575b61021387610207818903826107c5565b6040519182918261015c565b0390f35b600360005294509192917fc2575a0e9e593c00f959f8c92f12db2869c3395a3b0502d05e2516446f71f85b5b83861061025f57505050910190506102078261021338806101f7565b805485870152948201948101610243565b60ff191685525050505090151560051b0190506102078261021338806101f7565b634e487b7160e01b82526022600452602482fd5b93607f16936101d3565b80fd5b600435906001600160a01b038216820361000e57565b602435906001600160a01b038216820361000e57565b503461000e57604036600319011261000e576103056102fb6102b2565b60243590336109da565b602060405160018152f35b503461000e57600036600319011261000e576020600254604051908152f35b503461000e57600036600319011261000e57602060ff60055460081c166040519015158152f35b503461000e57606036600319011261000e5760206103866103756102b2565b61037d6102c8565b60443591610b07565b6040519015158152f35b503461000e57600036600319011261000e57602060ff600554166040519015158152f35b503461000e57600036600319011261000e57602060405160128152f35b503461000e57604036600319011261000e576103056103ee6102b2565b33600052600160205261042460243561041e836040600020906001600160a01b0316600052602052604060002090565b546107fd565b90336109da565b503461000e57604036600319011261000e576104456102b2565b6001600160a01b0381169060243582156104d6576104c7816104b16000946104986104937fddf252ad1be2c89b69c2b068fc378daa952ba7f163c4a11628f55a4df523b3ef966002546107fd565b600255565b6001600160a01b03166000526000602052604060002090565b8054820190556040519081529081906020820190565b0390a360405160018152602090f35b60405162461bcd60e51b815260206004820152601f60248201527f45524332303a206d696e7420746f20746865207a65726f2061646472657373006044820152606490fd5b503461000e57602036600319011261000e576001600160a01b0361053d6102b2565b1660005260006020526020604060002054604051908152f35b503461000e576000806003193601126102af5760405190806004549060019180831c92808216928315610610575b602092838610851461029157858852602088019490811561027057506001146105b75761021387610207818903826107c5565b600460005294509192917f8a35acfbc15ff81a39ae7d344fd709f28e8600b4aa8c65c6b64bfe7fe36bd19b5b8386106105ff57505050910190506102078261021338806101f7565b8054858701529482019481016105e3565b93607f1693610584565b503461000e57604036600319011261000e576106346102b2565b60243590336000526001602052610662816040600020906001600160a01b0316600052602052604060002090565b549180831061068357610677920390336109da565b60405160018152602090f35b60405162461bcd60e51b815260206004820152602560248201527f45524332303a2064656372656173656420616c6c6f77616e63652062656c6f77604482015264207a65726f60d81b6064820152608490fd5b503461000e57604036600319011261000e576103056106f36102b2565b60243590336108d3565b602090600319011261000e57600435801515810361000e5790565b503461000e57610727366106fd565b151561ff006005549160081b169061ff00191617600555600080f35b503461000e57604036600319011261000e5760206107986107626102b2565b6001600160a01b036107726102c8565b9116600052600183526040600020906001600160a01b0316600052602052604060002090565b54604051908152f35b503461000e576107b0366106fd565b151560ff801960055416911617600555600080f35b90601f8019910116810190811067ffffffffffffffff8211176107e757604052565b634e487b7160e01b600052604160045260246000fd5b9190820180921161080a57565b634e487b7160e01b600052601160045260246000fd5b1561082757565b60405162461bcd60e51b815260206004820152602360248201527f45524332303a207472616e7366657220746f20746865207a65726f206164647260448201526265737360e81b6064820152608490fd5b1561087f57565b60405162461bcd60e51b815260206004820152602660248201527f45524332303a207472616e7366657220616d6f756e7420657863656564732062604482015265616c616e636560d01b6064820152608490fd5b91906001600160a01b0390818416928315610987576104b1827fddf252ad1be2c89b69c2b068fc378daa952ba7f163c4a11628f55a4df523b3ef9461098294169661091f881515610820565b61096884610940836001600160a01b03166000526000602052604060002090565b5461094d82821015610878565b03916001600160a01b03166000526000602052604060002090565b556001600160a01b03166000526000602052604060002090565b0390a3565b60405162461bcd60e51b815260206004820152602560248201527f45524332303a207472616e736665722066726f6d20746865207a65726f206164604482015264647265737360d81b6064820152608490fd5b906001600160a01b0391828116928315610ab6578216938415610a665780610a557f8c5be1e5ebec7d5bd14f71427d1e84f3dd0314c0f7b2291e5b200ac8c7c3b92594610a3d610982956001600160a01b03166000526001602052604060002090565b906001600160a01b0316600052602052604060002090565b556040519081529081906020820190565b60405162461bcd60e51b815260206004820152602260248201527f45524332303a20617070726f766520746f20746865207a65726f206164647265604482015261737360f01b6064820152608490fd5b60405162461bcd60e51b8152602060048201526024808201527f45524332303a20617070726f76652066726f6d20746865207a65726f206164646044820152637265737360e01b6064820152608490fd5b919060ff60055416610bd0576001600160a01b0383166000526001602052610b46336040600020906001600160a01b0316600052602052604060002090565b549260018401610b6f575b610b5b93506108d3565b60055460081c60ff16610b6d57600190565b005b828410610b8b57610b8683610b5b950333836109da565b610b51565b60405162461bcd60e51b815260206004820152601d60248201527f45524332303a20696e73756666696369656e7420616c6c6f77616e63650000006044820152606490fd5b50505060009056fea2646970667358221220440fc1a6d44d40ad28ac82e086cdaafaa24aa9b1494df448df207403c942445b64736f6c63430008110033",
  "devdoc": {
    "kind": "dev",
    "methods": {
      "allowance(address,address)": {
        "details": "See {IERC20-allowance}."
      },
      "approve(address,uint256)": {
        "details": "See {IERC20-approve}. NOTE: If `amount` is the maximum `uint256`, the allowance is not updated on `transferFrom`. This is semantically equivalent to an infinite approval. Requirements: - `spender` cannot be the zero address."
      },
      "balanceOf(address)": {
        "details": "See {IERC20-balanceOf}."
      },
      "decimals()": {
        "details": "Returns the number of decimals used to get its user representation. For example, if `decimals` equals `2`, a balance of `505` tokens should be displayed to a user as `5.05` (`505 / 10 ** 2`). Tokens usually opt for a value of 18, imitating the relationship between Ether and Wei. This is the value {ERC20} uses, unless this function is overridden; NOTE: This information is only used for _display_ purposes: it in no way affects any of the arithmetic of the contract, including {IERC20-balanceOf} and {IERC20-transfer}."
      },
      "decreaseAllowance(address,uint256)": {
        "details": "Atomically decreases the allowance granted to `spender` by the caller. This is an alternative to {approve} that can be used as a mitigation for problems described in {IERC20-approve}. Emits an {Approval} event indicating the updated allowance. Requirements: - `spender` cannot be the zero address. - `spender` must have allowance for the caller of at least `subtractedValue`."
      },
      "increaseAllowance(address,uint256)": {
        "details": "Atomically increases the allowance granted to `spender` by the caller. This is an alternative to {approve} that can be used as a mitigation for problems described in {IERC20-approve}. Emits an {Approval} event indicating the updated allowance. Requirements: - `spender` cannot be the zero address."
      },
      "name()": {
        "details": "Returns the name of the token."
      },
      "symbol()": {
        "details": "Returns the symbol of the token, usually a shorter version of the name."
      },
      "totalSupply()": {
        "details": "See {IERC20-totalSupply}."
      },
      "transfer(address,uint256)": {
        "details": "See {IERC20-transfer}. Requirements: - `to` cannot be the zero address. - the caller must have a balance of at least `amount`."
      },
      "transferFrom(address,address,uint256)": {
        "details": "See {IERC20-transferFrom}. Emits an {Approval} event indicating the updated allowance. This is not required by the EIP. See the note at the beginning of {ERC20}. NOTE: Does not update the allowance if the current allowance is the maximum `uint256`. Requirements: - `from` and `to` cannot be the zero address. - `from` must have a balance of at least `amount`. - the caller must have allowance for ``from``'s tokens of at least `amount`."
      }
    },
    "version": 1
  },
  "userdoc": {
    "kind": "user",
    "methods": {},
    "version": 1
  },
  "storageLayout": {
    "storage": [
      {
        "astId": 5670,
        "contract": "contracts/FakeUSDC.sol:FakeUSDC",
        "label": "_balances",
        "offset": 0,
        "slot": "0",
        "type": "t_mapping(t_address,t_uint256)"
      },
      {
        "astId": 5676,
        "contract": "contracts/FakeUSDC.sol:FakeUSDC",
        "label": "_allowances",
        "offset": 0,
        "slot": "1",
        "type": "t_mapping(t_address,t_mapping(t_address,t_uint256))"
      },
      {
        "astId": 5678,
        "contract": "contracts/FakeUSDC.sol:FakeUSDC",
        "label": "_totalSupply",
        "offset": 0,
        "slot": "2",
        "type": "t_uint256"
      },
      {
        "astId": 5680,
        "contract": "contracts/FakeUSDC.sol:FakeUSDC",
        "label": "_name",
        "offset": 0,
        "slot": "3",
        "type": "t_string_storage"
      },
      {
        "astId": 5682,
        "contract": "contracts/FakeUSDC.sol:FakeUSDC",
        "label": "_symbol",
        "offset": 0,
        "slot": "4",
        "type": "t_string_storage"
      },
      {
        "astId": 10382,
        "contract": "contracts/FakeUSDC.sol:FakeUSDC",
        "label": "blocked",
        "offset": 0,
        "slot": "5",
        "type": "t_bool"
      },
      {
        "astId": 10384,
        "contract": "contracts/FakeUSDC.sol:FakeUSDC",
        "label": "noReturnData",
        "offset": 1,
        "slot": "5",
        "type": "t_bool"
      }
    ],
    "types": {
      "t_address": {
        "encoding": "inplace",
        "label": "address",
        "numberOfBytes": "20"
      },
      "t_bool": {
        "encoding": "inplace",
        "label": "bool",
        "numberOfBytes": "1"
      },
      "t_mapping(t_address,t_mapping(t_address,t_uint256))": {
        "encoding": "mapping",
        "key": "t_address",
        "label": "mapping(address => mapping(address => uint256))",
        "numberOfBytes": "32",
        "value": "t_mapping(t_address,t_uint256)"
      },
      "t_mapping(t_address,t_uint256)": {
        "encoding": "mapping",
        "key": "t_address",
        "label": "mapping(address => uint256)",
        "numberOfBytes": "32",
        "value": "t_uint256"
      },
      "t_string_storage": {
        "encoding": "bytes",
        "label": "string",
        "numberOfBytes": "32"
      },
      "t_uint256": {
        "encoding": "inplace",
        "label": "uint256",
        "numberOfBytes": "32"
      }
    }
  }
}