{
  "address": "0x425F50C83751C9c5166D67302E7465Eb7de0C818",
  "abi": [
    {
      "inputs": [
        {
          "internalType": "uint256",
          "name": "expiration",
          "type": "uint256"
        }
      ],
      "name": "Expired",
      "type": "error"
    },
    {
      "inputs": [],
      "name": "InvalidMessageHash",
      "type": "error"
    },
    {
      "inputs": [],
      "name": "InvalidTypeHash",
      "type": "error"
    },
    {
      "inputs": [
        {
          "internalType": "uint256",
          "name": "nonce",
          "type": "uint256"
        }
      ],
      "name": "NonceReused",
      "type": "error"
    },
    {
      "inputs": [
        {
          "internalType": "address",
          "name": "wallet",
          "type": "address"
        }
      ],
      "name": "NotOperator",
      "type": "error"
    },
    {
      "inputs": [
        {
          "internalType": "uint256",
          "name": "tokenId",
          "type": "uint256"
        }
      ],
      "name": "TokenIdUsed",
      "type": "error"
    },
    {
      "inputs": [
        {
          "internalType": "uint256",
          "name": "tokenId",
          "type": "uint256"
        }
      ],
      "name": "TokenNotExists",
      "type": "error"
    },
    {
      "anonymous": false,
      "inputs": [
        {
          "indexed": true,
          "internalType": "address",
          "name": "owner",
          "type": "address"
        },
        {
          "indexed": true,
          "internalType": "address",
          "name": "approved",
          "type": "address"
        },
        {
          "indexed": true,
          "internalType": "uint256",
          "name": "tokenId",
          "type": "uint256"
        }
      ],
      "name": "Approval",
      "type": "event"
    },
    {
      "anonymous": false,
      "inputs": [
        {
          "indexed": true,
          "internalType": "address",
          "name": "owner",
          "type": "address"
        },
        {
          "indexed": true,
          "internalType": "address",
          "name": "operator",
          "type": "address"
        },
        {
          "indexed": false,
          "internalType": "bool",
          "name": "approved",
          "type": "bool"
        }
      ],
      "name": "ApprovalForAll",
      "type": "event"
    },
    {
      "anonymous": false,
      "inputs": [
        {
          "indexed": true,
          "internalType": "address",
          "name": "payer",
          "type": "address"
        },
        {
          "indexed": true,
          "internalType": "address",
          "name": "buyer",
          "type": "address"
        },
        {
          "indexed": true,
          "internalType": "uint256",
          "name": "tokenId",
          "type": "uint256"
        },
        {
          "indexed": false,
          "internalType": "uint256",
          "name": "price",
          "type": "uint256"
        },
        {
          "indexed": false,
          "internalType": "uint256",
          "name": "tokenExpiration",
          "type": "uint256"
        },
        {
          "indexed": false,
          "internalType": "bytes",
          "name": "message",
          "type": "bytes"
        }
      ],
      "name": "BuyInsurance",
      "type": "event"
    },
    {
      "anonymous": false,
      "inputs": [
        {
          "indexed": true,
          "internalType": "address",
          "name": "to",
          "type": "address"
        },
        {
          "indexed": false,
          "internalType": "uint256",
          "name": "amount",
          "type": "uint256"
        },
        {
          "indexed": false,
          "internalType": "bytes",
          "name": "message",
          "type": "bytes"
        }
      ],
      "name": "Claim",
      "type": "event"
    },
    {
      "anonymous": false,
      "inputs": [
        {
          "indexed": true,
          "internalType": "address",
          "name": "payer",
          "type": "address"
        },
        {
          "indexed": true,
          "internalType": "uint256",
          "name": "tokenId",
          "type": "uint256"
        },
        {
          "indexed": false,
          "internalType": "uint256",
          "name": "price",
          "type": "uint256"
        },
        {
          "indexed": false,
          "internalType": "uint256",
          "name": "tokenExpiration",
          "type": "uint256"
        },
        {
          "indexed": false,
          "internalType": "bytes",
          "name": "message",
          "type": "bytes"
        }
      ],
      "name": "ExtendInsurance",
      "type": "event"
    },
    {
      "anonymous": false,
      "inputs": [
        {
          "indexed": false,
          "internalType": "uint8",
          "name": "version",
          "type": "uint8"
        }
      ],
      "name": "Initialized",
      "type": "event"
    },
    {
      "anonymous": false,
      "inputs": [
        {
          "indexed": true,
          "internalType": "address",
          "name": "operator",
          "type": "address"
        },
        {
          "indexed": false,
          "internalType": "bool",
          "name": "enabled",
          "type": "bool"
        }
      ],
      "name": "SetOperator",
      "type": "event"
    },
    {
      "anonymous": false,
      "inputs": [
        {
          "indexed": true,
          "internalType": "address",
          "name": "from",
          "type": "address"
        },
        {
          "indexed": true,
          "internalType": "address",
          "name": "to",
          "type": "address"
        },
        {
          "indexed": true,
          "internalType": "uint256",
          "name": "tokenId",
          "type": "uint256"
        }
      ],
      "name": "Transfer",
      "type": "event"
    },
    {
      "anonymous": false,
      "inputs": [
        {
          "indexed": false,
          "internalType": "uint256",
          "name": "newFeeBps",
          "type": "uint256"
        }
      ],
      "name": "UpdateBuyerDevFee",
      "type": "event"
    },
    {
      "inputs": [],
      "name": "ERC712_VERSION",
      "outputs": [
        {
          "internalType": "string",
          "name": "",
          "type": "string"
        }
      ],
      "stateMutability": "view",
      "type": "function"
    },
    {
      "inputs": [
        {
          "internalType": "address",
          "name": "to",
          "type": "address"
        },
        {
          "internalType": "uint256",
          "name": "tokenId",
          "type": "uint256"
        }
      ],
      "name": "approve",
      "outputs": [],
      "stateMutability": "nonpayable",
      "type": "function"
    },
    {
      "inputs": [
        {
          "internalType": "address",
          "name": "owner",
          "type": "address"
        }
      ],
      "name": "balanceOf",
      "outputs": [
        {
          "internalType": "uint256",
          "name": "",
          "type": "uint256"
        }
      ],
      "stateMutability": "view",
      "type": "function"
    },
    {
      "inputs": [],
      "name": "baseToken",
      "outputs": [
        {
          "internalType": "contract IERC20",
          "name": "",
          "type": "address"
        }
      ],
      "stateMutability": "view",
      "type": "function"
    },
    {
      "inputs": [
        {
          "internalType": "bytes",
          "name": "data",
          "type": "bytes"
        },
        {
          "internalType": "bytes",
          "name": "message",
          "type": "bytes"
        },
        {
          "internalType": "bytes",
          "name": "signature",
          "type": "bytes"
        }
      ],
      "name": "buyInsurance",
      "outputs": [],
      "stateMutability": "nonpayable",
      "type": "function"
    },
    {
      "inputs": [
        {
          "internalType": "bytes",
          "name": "data",
          "type": "bytes"
        },
        {
          "internalType": "bytes",
          "name": "message",
          "type": "bytes"
        },
        {
          "internalType": "bytes",
          "name": "signature",
          "type": "bytes"
        }
      ],
      "name": "claim",
      "outputs": [],
      "stateMutability": "nonpayable",
      "type": "function"
    },
    {
      "inputs": [
        {
          "internalType": "uint256",
          "name": "tokenId",
          "type": "uint256"
        }
      ],
      "name": "exists",
      "outputs": [
        {
          "internalType": "bool",
          "name": "",
          "type": "bool"
        }
      ],
      "stateMutability": "view",
      "type": "function"
    },
    {
      "inputs": [
        {
          "internalType": "bytes",
          "name": "data",
          "type": "bytes"
        },
        {
          "internalType": "bytes",
          "name": "message",
          "type": "bytes"
        },
        {
          "internalType": "bytes",
          "name": "signature",
          "type": "bytes"
        }
      ],
      "name": "extendInsurance",
      "outputs": [],
      "stateMutability": "nonpayable",
      "type": "function"
    },
    {
      "inputs": [
        {
          "internalType": "uint256",
          "name": "tokenId",
          "type": "uint256"
        }
      ],
      "name": "getApproved",
      "outputs": [
        {
          "internalType": "address",
          "name": "",
          "type": "address"
        }
      ],
      "stateMutability": "view",
      "type": "function"
    },
    {
      "inputs": [],
      "name": "getBuyerDevFee",
      "outputs": [
        {
          "internalType": "uint256",
          "name": "",
          "type": "uint256"
        }
      ],
      "stateMutability": "view",
      "type": "function"
    },
    {
      "inputs": [],
      "name": "getChainId",
      "outputs": [
        {
          "internalType": "uint256",
          "name": "",
          "type": "uint256"
        }
      ],
      "stateMutability": "view",
      "type": "function"
    },
    {
      "inputs": [],
      "name": "getDomainSeperator",
      "outputs": [
        {
          "internalType": "bytes32",
          "name": "",
          "type": "bytes32"
        }
      ],
      "stateMutability": "view",
      "type": "function"
    },
    {
      "inputs": [],
      "name": "getMaxBuyerFee",
      "outputs": [
        {
          "internalType": "uint256",
          "name": "",
          "type": "uint256"
        }
      ],
      "stateMutability": "view",
      "type": "function"
    },
    {
      "inputs": [
        {
          "internalType": "address",
          "name": "_pool",
          "type": "address"
        },
        {
          "internalType": "contract IERC20",
          "name": "_baseToken",
          "type": "address"
        },
        {
          "internalType": "string",
          "name": "_tokenName",
          "type": "string"
        },
        {
          "internalType": "string",
          "name": "_tokenSymbol",
          "type": "string"
        }
      ],
      "name": "initialize",
      "outputs": [],
      "stateMutability": "nonpayable",
      "type": "function"
    },
    {
      "inputs": [
        {
          "internalType": "address",
          "name": "owner",
          "type": "address"
        },
        {
          "internalType": "address",
          "name": "operator",
          "type": "address"
        }
      ],
      "name": "isApprovedForAll",
      "outputs": [
        {
          "internalType": "bool",
          "name": "",
          "type": "bool"
        }
      ],
      "stateMutability": "view",
      "type": "function"
    },
    {
      "inputs": [],
      "name": "name",
      "outputs": [
        {
          "internalType": "string",
          "name": "",
          "type": "string"
        }
      ],
      "stateMutability": "view",
      "type": "function"
    },
    {
      "inputs": [
        {
          "internalType": "address",
          "name": "",
          "type": "address"
        }
      ],
      "name": "operators",
      "outputs": [
        {
          "internalType": "bool",
          "name": "",
          "type": "bool"
        }
      ],
      "stateMutability": "view",
      "type": "function"
    },
    {
      "inputs": [],
      "name": "owner",
      "outputs": [
        {
          "internalType": "address",
          "name": "",
          "type": "address"
        }
      ],
      "stateMutability": "view",
      "type": "function"
    },
    {
      "inputs": [
        {
          "internalType": "uint256",
          "name": "tokenId",
          "type": "uint256"
        }
      ],
      "name": "ownerOf",
      "outputs": [
        {
          "internalType": "address",
          "name": "",
          "type": "address"
        }
      ],
      "stateMutability": "view",
      "type": "function"
    },
    {
      "inputs": [],
      "name": "pool",
      "outputs": [
        {
          "internalType": "contract InsurancePool",
          "name": "",
          "type": "address"
        }
      ],
      "stateMutability": "view",
      "type": "function"
    },
    {
      "inputs": [
        {
          "internalType": "address",
          "name": "from",
          "type": "address"
        },
        {
          "internalType": "address",
          "name": "to",
          "type": "address"
        },
        {
          "internalType": "uint256",
          "name": "tokenId",
          "type": "uint256"
        }
      ],
      "name": "safeTransferFrom",
      "outputs": [],
      "stateMutability": "nonpayable",
      "type": "function"
    },
    {
      "inputs": [
        {
          "internalType": "address",
          "name": "from",
          "type": "address"
        },
        {
          "internalType": "address",
          "name": "to",
          "type": "address"
        },
        {
          "internalType": "uint256",
          "name": "tokenId",
          "type": "uint256"
        },
        {
          "internalType": "bytes",
          "name": "data",
          "type": "bytes"
        }
      ],
      "name": "safeTransferFrom",
      "outputs": [],
      "stateMutability": "nonpayable",
      "type": "function"
    },
    {
      "inputs": [
        {
          "internalType": "address",
          "name": "operator",
          "type": "address"
        },
        {
          "internalType": "bool",
          "name": "approved",
          "type": "bool"
        }
      ],
      "name": "setApprovalForAll",
      "outputs": [],
      "stateMutability": "nonpayable",
      "type": "function"
    },
    {
      "inputs": [
        {
          "internalType": "address",
          "name": "operator",
          "type": "address"
        },
        {
          "internalType": "bool",
          "name": "enabled",
          "type": "bool"
        }
      ],
      "name": "setOperator",
      "outputs": [],
      "stateMutability": "nonpayable",
      "type": "function"
    },
    {
      "inputs": [
        {
          "internalType": "bytes4",
          "name": "interfaceId",
          "type": "bytes4"
        }
      ],
      "name": "supportsInterface",
      "outputs": [
        {
          "internalType": "bool",
          "name": "",
          "type": "bool"
        }
      ],
      "stateMutability": "view",
      "type": "function"
    },
    {
      "inputs": [],
      "name": "symbol",
      "outputs": [
        {
          "internalType": "string",
          "name": "",
          "type": "string"
        }
      ],
      "stateMutability": "view",
      "type": "function"
    },
    {
      "inputs": [
        {
          "internalType": "uint256",
          "name": "index",
          "type": "uint256"
        }
      ],
      "name": "tokenByIndex",
      "outputs": [
        {
          "internalType": "uint256",
          "name": "",
          "type": "uint256"
        }
      ],
      "stateMutability": "view",
      "type": "function"
    },
    {
      "inputs": [
        {
          "internalType": "uint256",
          "name": "",
          "type": "uint256"
        }
      ],
      "name": "tokenExpiration",
      "outputs": [
        {
          "internalType": "uint256",
          "name": "",
          "type": "uint256"
        }
      ],
      "stateMutability": "view",
      "type": "function"
    },
    {
      "inputs": [
        {
          "internalType": "uint256",
          "name": "",
          "type": "uint256"
        }
      ],
      "name": "tokenMessage",
      "outputs": [
        {
          "internalType": "bytes",
          "name": "",
          "type": "bytes"
        }
      ],
      "stateMutability": "view",
      "type": "function"
    },
    {
      "inputs": [
        {
          "internalType": "uint256",
          "name": "",
          "type": "uint256"
        },
        {
          "internalType": "uint256",
          "name": "",
          "type": "uint256"
        }
      ],
      "name": "tokenNonce",
      "outputs": [
        {
          "internalType": "bool",
          "name": "",
          "type": "bool"
        }
      ],
      "stateMutability": "view",
      "type": "function"
    },
    {
      "inputs": [
        {
          "internalType": "address",
          "name": "owner",
          "type": "address"
        },
        {
          "internalType": "uint256",
          "name": "index",
          "type": "uint256"
        }
      ],
      "name": "tokenOfOwnerByIndex",
      "outputs": [
        {
          "internalType": "uint256",
          "name": "",
          "type": "uint256"
        }
      ],
      "stateMutability": "view",
      "type": "function"
    },
    {
      "inputs": [
        {
          "internalType": "uint256",
          "name": "",
          "type": "uint256"
        }
      ],
      "name": "tokenReferralAddress",
      "outputs": [
        {
          "internalType": "address",
          "name": "",
          "type": "address"
        }
      ],
      "stateMutability": "view",
      "type": "function"
    },
    {
      "inputs": [
        {
          "internalType": "uint256",
          "name": "",
          "type": "uint256"
        }
      ],
      "name": "tokenReferralPercentage",
      "outputs": [
        {
          "internalType": "uint256",
          "name": "",
          "type": "uint256"
        }
      ],
      "stateMutability": "view",
      "type": "function"
    },
    {
      "inputs": [
        {
          "internalType": "uint256",
          "name": "tokenId",
          "type": "uint256"
        }
      ],
      "name": "tokenURI",
      "outputs": [
        {
          "internalType": "string",
          "name": "",
          "type": "string"
        }
      ],
      "stateMutability": "view",
      "type": "function"
    },
    {
      "inputs": [],
      "name": "totalSupply",
      "outputs": [
        {
          "internalType": "uint256",
          "name": "",
          "type": "uint256"
        }
      ],
      "stateMutability": "view",
      "type": "function"
    },
    {
      "inputs": [
        {
          "internalType": "address",
          "name": "from",
          "type": "address"
        },
        {
          "internalType": "address",
          "name": "to",
          "type": "address"
        },
        {
          "internalType": "uint256",
          "name": "tokenId",
          "type": "uint256"
        }
      ],
      "name": "transferFrom",
      "outputs": [],
      "stateMutability": "nonpayable",
      "type": "function"
    },
    {
      "inputs": [
        {
          "internalType": "uint256",
          "name": "feeBps",
          "type": "uint256"
        }
      ],
      "name": "updateBuyerDevFee",
      "outputs": [],
      "stateMutability": "nonpayable",
      "type": "function"
    }
  ],
  "transactionHash": "0x07ab1d2a3507581ec412c3f5664d467b62682ca0de87f6b7b1dade7a1ed35420",
  "args": [],
  "numDeployments": 1,
  "solcInputHash": "13e8bd079ad6e1fb5cfa36154c755e23",
  "bytecode": "0x60808060405234610016576134ba908161001c8239f35b600080fdfe608080604052600436101561001357600080fd5b600090813560e01c90816301ffc9a7146128275750806306fdde0314612756578063081812fc14612737578063095ea7b3146125c25780630f45fb77146123755780630f7e597014612359578063111a6cc614611bd457806313e7c9d814611b9757806316f0115b14611b7057806318160ddd14611b525780632016a0d21461163d57806320379ee51461161f57806323b872dd146116015780632f745c59146115535780633408e4701461153857806335d533d01461151d57806342842e0e146114dc5780634f558e791461149c5780634f6ccce71461140a578063558a7297146112fe5780636352211e146112ce57806370a08231146112aa5780637b0786e7146111385780637b16447114610ab15780637e4f83e614610a875780638da5cb5b146109fe57806390593227146109cb57806390b88e361461099257806395d89b41146108b0578063a22cb465146107ec578063b3edee75146107c2578063b88d4fde14610732578063c2f30c011461070f578063c55dae63146106e8578063c87b56dd146102e8578063e4b7baeb1461020f5763e985e9c5146101b857600080fd5b3461020c57604036600319011261020c576101d16128f6565b60406101db61290c565b926001600160a01b038093168152606a602052209116600052602052602060ff604060002054166040519015158152f35b80fd5b503461020c576020908160031936011261020c57604090600435815260cf8352209060405191826000825461024381612b5f565b938484526001918683821691826000146102c6575050600114610287575b505061026f925003836129e8565b6102836040519282849384528301906128d1565b0390f35b85925060005281600020906000915b8583106102ae57505061026f93508201013880610261565b80548389018501528794508693909201918101610296565b925093505061026f94915060ff191682840152151560051b8201013880610261565b503461020c576020806003193601126106e457600435916103276103228460005260676020526001600160a01b0360406000205416151590565b612c10565b60405167ffffffffffffffff93339160608101868111828210176105df57604052602a81528481019260403685378151156106d057603084538151906001918210156106bc576078602184015360295b82811161063857506105f55785966103fa604f60409897985180976103e08a8301977f68747470733a2f2f696e737572616e63652e38333865617274682e66696e616e89526d63652f6170692f746f6b656e732f60901b6040850152518092604e8501906128ae565b8101602f60f81b604e82015203602f8101885201866129e8565b8451156105ba575082839187947a184f03e93ff9f4daa797ed6e38ed64bf6a1f01000000000000000090818110156105ac575b5050866d04ee2d6d415b85acef81000000008085101561059e575b5050662386f26fc100008084101561058f575b506305f5e10080841015610580575b5061271080841015610571575b506064831015610561575b600a80931015610558575b90816021818701966104b76104a189612a0a565b986104af6040519a8b6129e8565b808a52612a0a565b888b019b90601f1901368d3750870101905b610522575b505050509361050d9392916105016104f296604051978895518092888801906128ae565b840191518093868401906128ae565b010380845201826129e8565b906102836040519282849384528301906128d1565b600019019083906f181899199a1a9b1b9c1cb0b131b232b360811b8282061a835304918215610553579190826104c9565b6104ce565b8094019361048d565b9391606460029104920193610482565b60049195930492019338610477565b6008919593049201933861046a565b6010919593049201933861045b565b950194909204918638610448565b60409650049250388061042d565b959450505050506040519183830190838210908211176105df5760405281529061026f565b634e487b7160e01b600052604160045260246000fd5b6064866040519062461bcd60e51b825280600483015260248201527f537472696e67733a20686578206c656e67746820696e73756666696369656e746044820152fd5b90600f811660108110156106a8578451831015610692576f181899199a1a9b1b9c1cb0b131b232b360811b901a84830189015360041c90801561067e5760001901610377565b634e487b7160e01b87526011600452602487fd5b634e487b7160e01b600052603260045260246000fd5b634e487b7160e01b88526032600452602488fd5b634e487b7160e01b86526032600452602486fd5b634e487b7160e01b85526032600452602485fd5b5080fd5b503461020c578060031936011261020c5760206001600160a01b0360cb5416604051908152f35b503461020c578060031936011261020c57602061072a612e9f565b604051908152f35b503461020c57608036600319011261020c5761074c6128f6565b5061075561290c565b5060643567ffffffffffffffff81116106e457610776903690600401612a5d565b5061078b61078660443533612d1d565b612cbb565b60405162461bcd60e51b815260206004820152600f60248201526e29b7bab63137bab732102a37b5b2b760891b6044820152606490fd5b503461020c57602036600319011261020c576040602091600435815260d083522054604051908152f35b503461020c576001600160a01b0361080336612b30565b91169081331461086b57338352606a602052604083208260005260205261083a8160406000209060ff801983541691151516179055565b60405190151581527f17307eab39ab6107e8899845ad3d59bd9653f200f220920489ca2b5937696c3160203392a380f35b60405162461bcd60e51b815260206004820152601960248201527f4552433732313a20617070726f766520746f2063616c6c6572000000000000006044820152606490fd5b503461020c578060031936011261020c57604051600060cd546108d281612b5f565b8084529060019081811690811561096b5750600114610910575b610283846108fc818603826129e8565b6040519182916020835260208301906128d1565b60cd600090815292507f83978b4c69c48dd978ab43fe30f077615294f938fb7f936d9eb340e51ea7db2e5b8284106109535750505081016020016108fc826108ec565b8054602085870181019190915290930192810161093b565b60ff191660208087019190915292151560051b850190920192506108fc91508390506108ec565b503461020c57604036600319011261020c5760ff6040602092600435815260d18452818120602435825284522054166040519015158152f35b503461020c57602036600319011261020c576001600160a01b036040602092600435815260d28452205416604051908152f35b503461020c578060031936011261020c5760046001600160a01b0360208160ca541660405193848092638da5cb5b60e01b82525afa918215610a7c5760209392610a4d575b5060405191168152f35b610a6e919250833d8111610a75575b610a6681836129e8565b810190612dc2565b9038610a43565b503d610a5c565b6040513d85823e3d90fd5b503461020c57602036600319011261020c576040602091600435815260d383522054604051908152f35b503461020c57610ac036612a7b565b91939260e08482810103126111345760a0840135606e604051610ae2816129cc565b8181526d6279746573206d6573736167652960901b608060208301927f457874656e64496e737572616e63652875696e743235362070726963652c756984527f6e7432353620746f6b656e49642c75696e74323536206e6f6e63652c75696e7460408201527f323536206475726174696f6e2c75696e743235362065787069726174696f6e2c60608201520152208535036111225760c0850135865160208801200361111057610bac604086013560005260676020526001600160a01b0360406000205416151590565b156110f4578042116110dc57506040840135865260d1602052604086206060850135875260205260ff6040872054166110c0576001600160a01b0392610c15610c2393610c0d610c01610c1b9536908a612a26565b60208151910120613452565b923691612a26565b9061338f565b919091613275565b1680845260ce60205260ff604085205416156110a857506040810135835260d36020528260408120546001600160a01b0360ca541660405191630caabba560e01b8352602083600481855afa92831561109d57849361105e575b5090600491610c8a612f56565b93610c93612e9f565b80610ca784610ca28986612ffc565b612ffc565b1161103c575b50610ce1610cc991610cd56127108094819360208d013561302c565b049760208b013561302c565b0492602089013561302c565b049160206001600160a01b0360cb54169160405195868092638da5cb5b60e01b82525afa93841561101457600494610d249287928992610ff3575b5033906130a7565b6001600160a01b0360cb54169060206001600160a01b0360ca54166040519586809263c45a015560e01b82525afa938415611014576001600160a01b0394602091889161101f575b50600460405180978193638da5cb5b60e01b8352165afa9182156110145781610e0993610da592610e30978a92610ff3575033906130a7565b610dd7836001600160a01b0360cb541660408a0135895260d26020526001600160a01b0360408a2054169033906130a7565b610e166001600160a01b0360cb541688610e0e86610e0986610e098c60206001600160a01b0360ca541697013561301f565b61301f565b9133906130a7565b610e096001600160a01b0360ca541695602089013561301f565b813b15610fe45782916024839260405194859384926391c05b0b60e01b845260048401525af18015610fe857610fd0575b50506040810135835260cf60205260408320825167ffffffffffffffff8111610fbc57610e9881610e928454612b5f565b84612e58565b806020601f8211600114610f5a578691610f4f575b508160011b916000199060031b1c19161790555b6040810135835260d06020527fe6cdd055bdc16db61554a86d180d3c97564baa9f0ed0286f5f482ac1bd053051610f3e6040852054936080840135948511610f44575b60d1602052604086206060850135875260205260408620600160ff198254161790556040519182916040860135966020339701358461303f565b0390a380f35b846040872055610f04565b905084015138610ead565b838752602087209150601f198316875b818110610fa457509083600194939210610f8b575b5050811b019055610ec1565b86015160001960f88460031b161c191690553880610f7f565b9192602060018192868b015181550194019201610f6a565b634e487b7160e01b85526041600452602485fd5b610fd990612964565b610fe4578238610e61565b8280fd5b6040513d84823e3d90fd5b61100d91925060203d602011610a7557610a6681836129e8565b9038610d1c565b6040513d88823e3d90fd5b6110369150823d8411610a7557610a6681836129e8565b38610d6c565b819250611056610cc992610e09610ce19360d4549061301f565b929150610cad565b91935091506020813d602011611095575b8161107c602093836129e8565b810103126110905751859290916004610c7d565b600080fd5b3d915061106f565b6040513d86823e3d90fd5b60249060405190633b63649d60e11b82526004820152fd5b604051632ad808dd60e11b815260608501356004820152602490fd5b60249060405190637c06dd7560e11b82526004820152fd5b60408051630f76b55560e11b8152908601356004820152602490fd5b604051638b56642d60e01b8152600490fd5b6040516316b17d2960e21b8152600490fd5b8580fd5b503461020c576020806003193601126106e4576004356001600160a01b036004838260ca54166040519283809263c45a015560e01b82525afa9081156112825782918591879161128d575b50600460405180948193638da5cb5b60e01b8352165afa908115611282578591611265575b50163303611236576111b8612e9f565b811180159061122b575b156111f85790817f6f2218311c99919365a86d8dd0b9f1b51d1b109f6966fb5f261b502334f99fac9260d455604051908152a180f35b60405162461bcd60e51b815260048101839052600b60248201526a496e76616c69642066656560a81b6044820152606490fd5b5061271181146111c2565b60405162461bcd60e51b81526004810183905260076024820152662737ba103232bb60c91b6044820152606490fd5b61127c9150843d8611610a7557610a6681836129e8565b386111a8565b6040513d87823e3d90fd5b6112a49150823d8411610a7557610a6681836129e8565b38611183565b503461020c57602036600319011261020c57602061072a6112c96128f6565b612b99565b503461020c57602036600319011261020c5760206112ed600435612c5c565b6001600160a01b0360405191168152f35b503461020c5761130d36612b30565b906001600160a01b038060ca54169160405180936337b87c3960e21b825233600483015281602460209687935afa9081156110145786916113dd575b501561139a571680845260ce825260408420805460ff191660ff85151516179055917f1618a22a3b00b9ac70fd5a82f1f5cdd8cb272bd0f1b740ddf7c26ab05881dd5b91906040519015158152a280f35b6064836040519062461bcd60e51b825280600483015260248201527f4f776e61626c653a2063616c6c6572206973206e6f7420746865206f776e65726044820152fd5b6113fd9150843d8611611403575b6113f581836129e8565b810190612fe4565b38611349565b503d6113eb565b503461020c57602036600319011261020c5760043560995481101561144257611434602091612d8b565b90546040519160031b1c8152f35b60405162461bcd60e51b815260206004820152602c60248201527f455243373231456e756d657261626c653a20676c6f62616c20696e646578206f60448201526b7574206f6620626f756e647360a01b6064820152608490fd5b503461020c57602036600319011261020c5760206114d260043560005260676020526001600160a01b0360406000205416151590565b6040519015158152f35b503461020c576114eb36612afb565b9291505060405191602083019183831067ffffffffffffffff8411176105df5761078b93610786936040525233612d1d565b503461020c578060031936011261020c57602061072a612f56565b503461020c578060031936011261020c576020604051468152f35b503461020c57604036600319011261020c5761156d6128f6565b6024359161157a82612b99565b8310156115a8576020926001600160a01b036040931682526097845282822090825283522054604051908152f35b60405162461bcd60e51b815260206004820152602b60248201527f455243373231456e756d657261626c653a206f776e657220696e646578206f7560448201526a74206f6620626f756e647360a81b6064820152608490fd5b503461020c5761078b61078661161636612afb565b91505033612d1d565b503461020c578060031936011261020c57602060c954604051908152f35b503461020c57608036600319011261020c576116576128f6565b90602435916001600160a01b03808416809403610fe45767ffffffffffffffff604435818111611b4e5761168f903690600401612a5d565b94606435828111611134576116a8903690600401612a5d565b9085549460ff8660081c161594858096611b41575b8015611b2a575b15611ace57600196868860ff198316178a55611abd575b5061271160d4556bffffffffffffffffffffffff60a01b91168160ca54161760ca5560cb54161760cb5561171e60ff865460081c1661171981612de1565b612de1565b8551828111611aa95780611733606554612b5f565b97601f98898111611a5c575b506020908983116001146119dd5788926119d2575b5050600019600383901b1c191690851b176065555b8051918211610fbc5761177d606654612b5f565b86811161197b575b5060209582116001146118fb5794849582939495926118f0575b5050600019600383901b1c191690831b176066555b604051906117c1826129b0565b600c825260208201916b125b9cdd5c985b98d953999d60a21b83528454926117ee60ff8560081c16612de1565b60526040516117fc81612978565b81815271766572696679696e67436f6e74726163742960701b606060208301927f454950373132446f6d61696e28737472696e67206e616d652c737472696e672084527f76657273696f6e2c75696e7432353620636861696e49642c6164647265737320604082015201522091519020611874612ade565b602081519101206040519160208301938452604083015260608201524660808201523060a082015260a081526118a981612994565b51902060c9556118b7578280f35b61ff00191682556040519081527f7f26b83ff96e1f2b6a682f133852f6798a09c465da95921460cefb384740249890602090a138808280f35b01519050388061179f565b60668552601f198216957f46501879b8ca8525e8c2fd519e2fbfcfa2ebea26501294aa02cbfcfb12e9435491865b8881106119655750838697989695961061194c575b505050811b016066556117b4565b015160001960f88460031b161c1916905538808061193e565b8183015184559286019260209283019201611929565b6119c39060666000527f46501879b8ca8525e8c2fd519e2fbfcfa2ebea26501294aa02cbfcfb12e943548880860160051c820192602087106119c9575b0160051c0190612e41565b38611785565b925081926119b8565b015190503880611754565b606589528793507f8ff97419363ffd7000167f130ef7168fbea05faf9251824ca5043f113cc6a7c79190601f1984168a5b818110611a4457508411611a2b575b505050811b01606555611769565b015160001960f88460031b161c19169055388080611a1d565b8284015185558a969094019360209384019301611a0e565b611aa39060656000527f8ff97419363ffd7000167f130ef7168fbea05faf9251824ca5043f113cc6a7c78b80860160051c820192602087106119c9570160051c0190612e41565b3861173f565b634e487b7160e01b86526041600452602486fd5b61ffff1916610101178855386116db565b60405162461bcd60e51b815260206004820152602e60248201527f496e697469616c697a61626c653a20636f6e747261637420697320616c72656160448201526d191e481a5b9a5d1a585b1a5e995960921b6064820152608490fd5b50303b1580156116c45750600160ff8816146116c4565b50600160ff8816106116bd565b8480fd5b503461020c578060031936011261020c576020609954604051908152f35b503461020c578060031936011261020c5760206001600160a01b0360ca5416604051908152f35b503461020c57602036600319011261020c5760ff60406020926001600160a01b03611bc06128f6565b16815260ce84522054166040519015158152f35b503461020c57611be336612a7b565b9261012085828195949701031261113457611c0060208401612922565b94611c0d60a08501612922565b9460c08501359160e08601359383946094604051611c2a81612994565b8181527f6174696f6e2c6279746573206d6573736167652900000000000000000000000060a060208301927f427579496e737572616e6365286164647265737320746f2c75696e743235362084527f70726963652c75696e7432353620746f6b656e49642c75696e7432353620647560408201527f726174696f6e2c6164647265737320726566657272616c2c75696e743235362060608201527f726566657272616c50657263656e746167652c75696e74323536206578706972608082015201522088350361112257610100880135875160208901200361111057611d2a606089013560005260676020526001600160a01b0360406000205416151590565b61233d578042116110dc57506001600160a01b0392610c15611d5893610c0d610c01610c1b9536908d612a26565b1680885260ce60205260ff604089205416156110a8575086906001600160a01b0360ca5416604051630caabba560e01b8152602081600481855afa90811561109d578491612308575b50611dc3611dad612f56565b93611db6612e9f565b918291610ca28786612ffc565b116122e5575b5090611de5600492611df16127108093819360408d013561302c565b049560408b013561302c565b0490611e018760408b013561302c565b049160206001600160a01b0360cb54169160405195868092638da5cb5b60e01b82525afa93841561101457600494611e439287928992610ff3575033906130a7565b6001600160a01b0360cb54169060206001600160a01b0360ca54166040519586809263c45a015560e01b82525afa938415611014576001600160a01b039460209188916122c8575b50600460405180978193638da5cb5b60e01b8352165afa9182156110145781610e0993611ec492611f30978a92610ff3575033906130a7565b611ee4836001600160a01b038c16336001600160a01b0360cb54166130a7565b611f166001600160a01b0360cb54168a610e0e86610e0986610e098c60406001600160a01b0360ca541697013561301f565b610e096001600160a01b0360ca54169560408b013561301f565b813b15610fe45782916024839260405194859384926391c05b0b60e01b845260048401525af18015610fe8576122b4575b50506001600160a01b0385161561227057611f9f611f99606085013560005260676020526001600160a01b0360406000205416151590565b1561305b565b60995460608401358752609a6020528060408820556801000000000000000081101561225c57806001611fd59201609955612d8b565b81549060031b90600019821b80926060880135901b169119161790556120036001600160a01b038616612b99565b6001600160a01b0386168752609760205260408720818852602052606084013560408820556060840135875260986020526040872055612060611f99606085013560005260676020526001600160a01b0360406000205416151590565b6001600160a01b038516808752606860209081526040808920805460010190556060860135808a526067909252882080546001600160a01b0319168317905590877fddf252ad1be2c89b69c2b068fc378daa952ba7f163c4a11628f55a4df523b3ef8180a460cf60205260408620825167ffffffffffffffff8111612248576120ed81610e928454612b5f565b6020601f82116001146121bd5791816121ac94927fe34a1e399b28338b3fa0bdba9ec43eba0019fd57aa9803943711970c0f005fff96948b916121b2575b508160011b916000199060031b1c19161790555b6060850135885260d06020526080850135958660408a205560d26020526001600160a01b0360408a2091166bffffffffffffffffffffffff60a01b82541617905560d360205260408820556040519182916001600160a01b0360608701359816966040339701358461303f565b0390a480f35b90508401513861212b565b8289526020892090895b601f19841681106122305750827fe34a1e399b28338b3fa0bdba9ec43eba0019fd57aa9803943711970c0f005fff9694926001926121ac9795601f19811610612217575b5050811b01905561213f565b86015160001960f88460031b161c19169055388061220b565b9091602060018192858a0151815501930191016121c7565b634e487b7160e01b88526041600452602488fd5b634e487b7160e01b87526041600452602487fd5b606460405162461bcd60e51b815260206004820152602060248201527f4552433732313a206d696e7420746f20746865207a65726f20616464726573736044820152fd5b6122bd90612964565b611134578538611f61565b6122df9150823d8411610a7557610a6681836129e8565b38611e8b565b8195506122ff60049392610e09611de59360d4549061301f565b95919250611dc9565b9350506020833d602011612335575b81612324602093836129e8565b810103126110905788925138611da1565b3d9150612317565b6040516335ee7bf960e21b815260608901356004820152602490fd5b503461020c578060031936011261020c576102836108fc612ade565b503461020c5761238436612a7b565b9094939160e0838581010312611b4e576020926123a2848201612922565b60408201359360608301359860808401359360a0810135986001600160a01b0380951699605f6040516123d481612978565b8181527f6e743235362065787069726174696f6e2c6279746573206d657373616765290060608d8301927f436c61696d286164647265737320746f2c75696e7432353620616d6f756e742c84527f75696e7432353620746f6b656e49642c75696e74323536206e6f6e63652c756960408201520152208335036111225760c083013588518b8a012003611110578042116110dc57508b8b5260d1895260408b20868c52895260ff60408c2054166125a95792610c156124ab93610c0d6124a0610c1b9589983691612a26565b8c8151910120613452565b1680885260ce865260ff604089205416156110a8575060ca5416803b156125a557868091604460405180948193635569f64b60e11b83528b60048401528960248401525af1801561259a5761255f575b50906125599186977fb6571b52d571d3d5954af61c79919535a58a7ca974a0f1f30acb172420ba405d96975260d1855260408820908852845260408720600160ff1982541617905560408051948594855284015260408301906128d1565b0390a280f35b907fb6571b52d571d3d5954af61c79919535a58a7ca974a0f1f30acb172420ba405d95966125906125599493612964565b96955090916124fb565b6040513d89823e3d90fd5b8680fd5b604051632ad808dd60e11b815260048101879052602490fd5b503461020c57604036600319011261020c576125dc6128f6565b602435906001600160a01b0380806125f385612c5c565b169216918083146126e8578033149081156126c7575b501561265c5782845260696020526040842080546001600160a01b0319168317905561263483612c5c565b167f8c5be1e5ebec7d5bd14f71427d1e84f3dd0314c0f7b2291e5b200ac8c7c3b9258480a480f35b60405162461bcd60e51b815260206004820152603d60248201527f4552433732313a20617070726f76652063616c6c6572206973206e6f7420746f60448201527f6b656e206f776e6572206f7220617070726f76656420666f7220616c6c0000006064820152608490fd5b90508452606a6020526040842033855260205260ff60408520541638612609565b60405162461bcd60e51b815260206004820152602160248201527f4552433732313a20617070726f76616c20746f2063757272656e74206f776e656044820152603960f91b6064820152608490fd5b503461020c57602036600319011261020c5760206112ed600435612c7e565b503461020c578060031936011261020c57604051908060cc5461277881612b5f565b808552916001918083169081156127fd57506001146127a2575b610283856108fc818703826129e8565b925060cc83527f47197230e1e4b29fc0bd84d7d78966c0925452aff72a2a121538b102457e9ebe5b8284106127e55750505081016020016108fc82610283612792565b805460208587018101919091529093019281016127ca565b869550610283969350602092506108fc94915060ff191682840152151560051b8201019293612792565b9050346106e45760203660031901126106e45760043563ffffffff60e01b8116809103610fe4576020925063780e9d6360e01b811490811561286b575b5015158152f35b6380ac58cd60e01b81149150811561289d575b811561288c575b5038612864565b6301ffc9a760e01b14905038612885565b635b5e139f60e01b8114915061287e565b60005b8381106128c15750506000910152565b81810151838201526020016128b1565b906020916128ea815180928185528580860191016128ae565b601f01601f1916010190565b600435906001600160a01b038216820361109057565b602435906001600160a01b038216820361109057565b35906001600160a01b038216820361109057565b9181601f840112156110905782359167ffffffffffffffff8311611090576020838186019501011161109057565b67ffffffffffffffff81116105df57604052565b6080810190811067ffffffffffffffff8211176105df57604052565b60c0810190811067ffffffffffffffff8211176105df57604052565b6040810190811067ffffffffffffffff8211176105df57604052565b60a0810190811067ffffffffffffffff8211176105df57604052565b90601f8019910116810190811067ffffffffffffffff8211176105df57604052565b67ffffffffffffffff81116105df57601f01601f191660200190565b929192612a3282612a0a565b91612a4060405193846129e8565b829481845281830111611090578281602093846000960137010152565b9080601f8301121561109057816020612a7893359101612a26565b90565b60606003198201126110905767ffffffffffffffff906004358281116110905781612aa891600401612936565b939093926024358181116110905783612ac391600401612a5d565b9260443591821161109057612ada91600401612936565b9091565b60405190612aeb826129b0565b60018252603160f81b6020830152565b6060906003190112611090576001600160a01b0390600435828116810361109057916024359081168103611090579060443590565b6040906003190112611090576004356001600160a01b0381168103611090579060243580151581036110905790565b90600182811c92168015612b8f575b6020831014612b7957565b634e487b7160e01b600052602260045260246000fd5b91607f1691612b6e565b6001600160a01b03168015612bb957600052606860205260406000205490565b60405162461bcd60e51b815260206004820152602960248201527f4552433732313a2061646472657373207a65726f206973206e6f7420612076616044820152683634b21037bbb732b960b91b6064820152608490fd5b15612c1757565b60405162461bcd60e51b815260206004820152601860248201527f4552433732313a20696e76616c696420746f6b656e20494400000000000000006044820152606490fd5b60005260676020526001600160a01b0360406000205416612a78811515612c10565b612ca16103228260005260676020526001600160a01b0360406000205416151590565b60005260696020526001600160a01b036040600020541690565b15612cc257565b60405162461bcd60e51b815260206004820152602d60248201527f4552433732313a2063616c6c6572206973206e6f7420746f6b656e206f776e6560448201526c1c881bdc88185c1c1c9bdd9959609a1b6064820152608490fd5b906001600160a01b038080612d3184612c5c565b16931691838314938415612d64575b508315612d4e575b50505090565b612d5a91929350612c7e565b1614388080612d48565b909350600052606a60205260406000208260005260205260ff604060002054169238612d40565b6099548110156106925760996000527f72a152ddfb8e864297c917af52ea6c1c68aead0fee1a62673fcc7e0c94979d000190600090565b9081602091031261109057516001600160a01b03811681036110905790565b15612de857565b60405162461bcd60e51b815260206004820152602b60248201527f496e697469616c697a61626c653a20636f6e7472616374206973206e6f74206960448201526a6e697469616c697a696e6760a81b6064820152608490fd5b818110612e4c575050565b60008155600101612e41565b9190601f8111612e6757505050565b612e93926000526020600020906020601f840160051c83019310612e95575b601f0160051c0190612e41565b565b9091508190612e86565b6001600160a01b038060ca5416604051809163c45a015560e01b825281600460209485935afa8015612f2d578291600091612f39575b50600460405180958193632b11b03960e01b8352165afa908115612f2d57600091612f01575b50905090565b82813d8311612f26575b612f1581836129e8565b8101031261020c5750518038612efb565b503d612f0b565b6040513d6000823e3d90fd5b612f509150823d8411610a7557610a6681836129e8565b38612ed5565b60d4546127118114612f655790565b506001600160a01b038060ca5416604051809163c45a015560e01b825281600460209485935afa8015612f2d578291600091612fc7575b50600460405180958193633b168ae360e21b8352165afa908115612f2d57600091612f015750905090565b612fde9150823d8411610a7557610a6681836129e8565b38612f9c565b90816020910312611090575180151581036110905790565b9190820180921161300957565b634e487b7160e01b600052601160045260246000fd5b9190820391821161300957565b8181029291811591840414171561300957565b612a7893926060928252602082015281604082015201906128d1565b1561306257565b60405162461bcd60e51b815260206004820152601c60248201527f4552433732313a20746f6b656e20616c7265616479206d696e746564000000006044820152606490fd5b906000806131589460405194602097888701956323b872dd60e01b87526001600160a01b03938480921660248a01521660448801526064870152606486526130ee866129cc565b1692604051946130fd866129b0565b8786527f5361666545524332303a206c6f772d6c6576656c2063616c6c206661696c656488870152519082855af13d156131d4573d9161313c83612a0a565b9261314a60405194856129e8565b83523d60008785013e6131d8565b8051908161316557505050565b8280613175938301019101612fe4565b1561317d5750565b6084906040519062461bcd60e51b82526004820152602a60248201527f5361666545524332303a204552433230206f7065726174696f6e20646964206e6044820152691bdd081cdd58d8d9595960b21b6064820152fd5b6060915b9192901561323a57508151156131ec575090565b3b156131f55790565b60405162461bcd60e51b815260206004820152601d60248201527f416464726573733a2063616c6c20746f206e6f6e2d636f6e74726163740000006044820152606490fd5b82519091501561324d5750805190602001fd5b60405162461bcd60e51b8152602060048201529081906132719060248301906128d1565b0390fd5b600581101561337957806132865750565b600181036132d35760405162461bcd60e51b815260206004820152601860248201527f45434453413a20696e76616c6964207369676e617475726500000000000000006044820152606490fd5b600281036133205760405162461bcd60e51b815260206004820152601f60248201527f45434453413a20696e76616c6964207369676e6174757265206c656e677468006044820152606490fd5b60031461332957565b60405162461bcd60e51b815260206004820152602260248201527f45434453413a20696e76616c6964207369676e6174757265202773272076616c604482015261756560f01b6064820152608490fd5b634e487b7160e01b600052602160045260246000fd5b9060418151146000146133b957612ada916020820151906060604084015193015160001a906133c3565b5050600090600290565b9291907f7fffffffffffffffffffffffffffffff5d576e7357a4501ddfe92f46681b20a083116134465791608094939160ff602094604051948552168484015260408301526060820152600093849182805260015afa156134395781516001600160a01b03811615613433579190565b50600190565b50604051903d90823e3d90fd5b50505050600090600390565b60c9549060405190602082019261190160f01b8452602283015260428201526042815261347e81612978565b5190209056fea264697066735822122099d4cf4fa89db86695b15f4fa7dc592b0a1dc1cb9859def025f05b8b09c718b164736f6c63430008110033",
  "devdoc": {
    "kind": "dev",
    "methods": {
      "approve(address,uint256)": {
        "details": "See {IERC721-approve}."
      },
      "balanceOf(address)": {
        "details": "See {IERC721-balanceOf}."
      },
      "getApproved(uint256)": {
        "details": "See {IERC721-getApproved}."
      },
      "isApprovedForAll(address,address)": {
        "details": "See {IERC721-isApprovedForAll}."
      },
      "name()": {
        "details": "Returns the name of the token."
      },
      "owner()": {
        "details": "Tells the address of the owner",
        "returns": {
          "_0": "the address of the owner"
        }
      },
      "ownerOf(uint256)": {
        "details": "See {IERC721-ownerOf}."
      },
      "safeTransferFrom(address,address,uint256)": {
        "details": "See {IERC721-safeTransferFrom}."
      },
      "safeTransferFrom(address,address,uint256,bytes)": {
        "details": "See {IERC721-safeTransferFrom}."
      },
      "setApprovalForAll(address,bool)": {
        "details": "See {IERC721-setApprovalForAll}."
      },
      "supportsInterface(bytes4)": {
        "details": "See {IERC165-supportsInterface}."
      },
      "symbol()": {
        "details": "Returns the symbol of the token, usually a shorter version of the name."
      },
      "tokenByIndex(uint256)": {
        "details": "See {IERC721Enumerable-tokenByIndex}."
      },
      "tokenOfOwnerByIndex(address,uint256)": {
        "details": "See {IERC721Enumerable-tokenOfOwnerByIndex}."
      },
      "tokenURI(uint256)": {
        "details": "See {IERC721Metadata-tokenURI}."
      },
      "totalSupply()": {
        "details": "See {IERC721Enumerable-totalSupply}."
      },
      "transferFrom(address,address,uint256)": {
        "details": "See {IERC721-transferFrom}."
      }
    },
    "version": 1
  },
  "userdoc": {
    "kind": "user",
    "methods": {},
    "version": 1
  },
  "storageLayout": {
    "storage": [
      {
        "astId": 138,
        "contract": "contracts/InsuranceNft.sol:InsuranceNft",
        "label": "_initialized",
        "offset": 0,
        "slot": "0",
        "type": "t_uint8"
      },
      {
        "astId": 141,
        "contract": "contracts/InsuranceNft.sol:InsuranceNft",
        "label": "_initializing",
        "offset": 1,
        "slot": "0",
        "type": "t_bool"
      },
      {
        "astId": 2949,
        "contract": "contracts/InsuranceNft.sol:InsuranceNft",
        "label": "__gap",
        "offset": 0,
        "slot": "1",
        "type": "t_array(t_uint256)50_storage"
      },
      {
        "astId": 3168,
        "contract": "contracts/InsuranceNft.sol:InsuranceNft",
        "label": "__gap",
        "offset": 0,
        "slot": "51",
        "type": "t_array(t_uint256)50_storage"
      },
      {
        "astId": 1117,
        "contract": "contracts/InsuranceNft.sol:InsuranceNft",
        "label": "_name",
        "offset": 0,
        "slot": "101",
        "type": "t_string_storage"
      },
      {
        "astId": 1119,
        "contract": "contracts/InsuranceNft.sol:InsuranceNft",
        "label": "_symbol",
        "offset": 0,
        "slot": "102",
        "type": "t_string_storage"
      },
      {
        "astId": 1123,
        "contract": "contracts/InsuranceNft.sol:InsuranceNft",
        "label": "_owners",
        "offset": 0,
        "slot": "103",
        "type": "t_mapping(t_uint256,t_address)"
      },
      {
        "astId": 1127,
        "contract": "contracts/InsuranceNft.sol:InsuranceNft",
        "label": "_balances",
        "offset": 0,
        "slot": "104",
        "type": "t_mapping(t_address,t_uint256)"
      },
      {
        "astId": 1131,
        "contract": "contracts/InsuranceNft.sol:InsuranceNft",
        "label": "_tokenApprovals",
        "offset": 0,
        "slot": "105",
        "type": "t_mapping(t_uint256,t_address)"
      },
      {
        "astId": 1137,
        "contract": "contracts/InsuranceNft.sol:InsuranceNft",
        "label": "_operatorApprovals",
        "offset": 0,
        "slot": "106",
        "type": "t_mapping(t_address,t_mapping(t_address,t_bool))"
      },
      {
        "astId": 2057,
        "contract": "contracts/InsuranceNft.sol:InsuranceNft",
        "label": "__gap",
        "offset": 0,
        "slot": "107",
        "type": "t_array(t_uint256)44_storage"
      },
      {
        "astId": 2222,
        "contract": "contracts/InsuranceNft.sol:InsuranceNft",
        "label": "_ownedTokens",
        "offset": 0,
        "slot": "151",
        "type": "t_mapping(t_address,t_mapping(t_uint256,t_uint256))"
      },
      {
        "astId": 2226,
        "contract": "contracts/InsuranceNft.sol:InsuranceNft",
        "label": "_ownedTokensIndex",
        "offset": 0,
        "slot": "152",
        "type": "t_mapping(t_uint256,t_uint256)"
      },
      {
        "astId": 2229,
        "contract": "contracts/InsuranceNft.sol:InsuranceNft",
        "label": "_allTokens",
        "offset": 0,
        "slot": "153",
        "type": "t_array(t_uint256)dyn_storage"
      },
      {
        "astId": 2233,
        "contract": "contracts/InsuranceNft.sol:InsuranceNft",
        "label": "_allTokensIndex",
        "offset": 0,
        "slot": "154",
        "type": "t_mapping(t_uint256,t_uint256)"
      },
      {
        "astId": 2565,
        "contract": "contracts/InsuranceNft.sol:InsuranceNft",
        "label": "__gap",
        "offset": 0,
        "slot": "155",
        "type": "t_array(t_uint256)46_storage"
      },
      {
        "astId": 14173,
        "contract": "contracts/InsuranceNft.sol:InsuranceNft",
        "label": "domainSeperator",
        "offset": 0,
        "slot": "201",
        "type": "t_bytes32"
      },
      {
        "astId": 11836,
        "contract": "contracts/InsuranceNft.sol:InsuranceNft",
        "label": "pool",
        "offset": 0,
        "slot": "202",
        "type": "t_contract(InsurancePool)14108"
      },
      {
        "astId": 11839,
        "contract": "contracts/InsuranceNft.sol:InsuranceNft",
        "label": "baseToken",
        "offset": 0,
        "slot": "203",
        "type": "t_contract(IERC20)6319"
      },
      {
        "astId": 11841,
        "contract": "contracts/InsuranceNft.sol:InsuranceNft",
        "label": "_name",
        "offset": 0,
        "slot": "204",
        "type": "t_string_storage"
      },
      {
        "astId": 11843,
        "contract": "contracts/InsuranceNft.sol:InsuranceNft",
        "label": "_symbol",
        "offset": 0,
        "slot": "205",
        "type": "t_string_storage"
      },
      {
        "astId": 11847,
        "contract": "contracts/InsuranceNft.sol:InsuranceNft",
        "label": "operators",
        "offset": 0,
        "slot": "206",
        "type": "t_mapping(t_address,t_bool)"
      },
      {
        "astId": 11851,
        "contract": "contracts/InsuranceNft.sol:InsuranceNft",
        "label": "tokenMessage",
        "offset": 0,
        "slot": "207",
        "type": "t_mapping(t_uint256,t_bytes_storage)"
      },
      {
        "astId": 11855,
        "contract": "contracts/InsuranceNft.sol:InsuranceNft",
        "label": "tokenExpiration",
        "offset": 0,
        "slot": "208",
        "type": "t_mapping(t_uint256,t_uint256)"
      },
      {
        "astId": 11861,
        "contract": "contracts/InsuranceNft.sol:InsuranceNft",
        "label": "tokenNonce",
        "offset": 0,
        "slot": "209",
        "type": "t_mapping(t_uint256,t_mapping(t_uint256,t_bool))"
      },
      {
        "astId": 11865,
        "contract": "contracts/InsuranceNft.sol:InsuranceNft",
        "label": "tokenReferralAddress",
        "offset": 0,
        "slot": "210",
        "type": "t_mapping(t_uint256,t_address)"
      },
      {
        "astId": 11869,
        "contract": "contracts/InsuranceNft.sol:InsuranceNft",
        "label": "tokenReferralPercentage",
        "offset": 0,
        "slot": "211",
        "type": "t_mapping(t_uint256,t_uint256)"
      },
      {
        "astId": 11871,
        "contract": "contracts/InsuranceNft.sol:InsuranceNft",
        "label": "buyerDevFee",
        "offset": 0,
        "slot": "212",
        "type": "t_uint256"
      }
    ],
    "types": {
      "t_address": {
        "encoding": "inplace",
        "label": "address",
        "numberOfBytes": "20"
      },
      "t_array(t_uint256)44_storage": {
        "base": "t_uint256",
        "encoding": "inplace",
        "label": "uint256[44]",
        "numberOfBytes": "1408"
      },
      "t_array(t_uint256)46_storage": {
        "base": "t_uint256",
        "encoding": "inplace",
        "label": "uint256[46]",
        "numberOfBytes": "1472"
      },
      "t_array(t_uint256)50_storage": {
        "base": "t_uint256",
        "encoding": "inplace",
        "label": "uint256[50]",
        "numberOfBytes": "1600"
      },
      "t_array(t_uint256)dyn_storage": {
        "base": "t_uint256",
        "encoding": "dynamic_array",
        "label": "uint256[]",
        "numberOfBytes": "32"
      },
      "t_bool": {
        "encoding": "inplace",
        "label": "bool",
        "numberOfBytes": "1"
      },
      "t_bytes32": {
        "encoding": "inplace",
        "label": "bytes32",
        "numberOfBytes": "32"
      },
      "t_bytes_storage": {
        "encoding": "bytes",
        "label": "bytes",
        "numberOfBytes": "32"
      },
      "t_contract(IERC20)6319": {
        "encoding": "inplace",
        "label": "contract IERC20",
        "numberOfBytes": "20"
      },
      "t_contract(InsurancePool)14108": {
        "encoding": "inplace",
        "label": "contract InsurancePool",
        "numberOfBytes": "20"
      },
      "t_mapping(t_address,t_bool)": {
        "encoding": "mapping",
        "key": "t_address",
        "label": "mapping(address => bool)",
        "numberOfBytes": "32",
        "value": "t_bool"
      },
      "t_mapping(t_address,t_mapping(t_address,t_bool))": {
        "encoding": "mapping",
        "key": "t_address",
        "label": "mapping(address => mapping(address => bool))",
        "numberOfBytes": "32",
        "value": "t_mapping(t_address,t_bool)"
      },
      "t_mapping(t_address,t_mapping(t_uint256,t_uint256))": {
        "encoding": "mapping",
        "key": "t_address",
        "label": "mapping(address => mapping(uint256 => uint256))",
        "numberOfBytes": "32",
        "value": "t_mapping(t_uint256,t_uint256)"
      },
      "t_mapping(t_address,t_uint256)": {
        "encoding": "mapping",
        "key": "t_address",
        "label": "mapping(address => uint256)",
        "numberOfBytes": "32",
        "value": "t_uint256"
      },
      "t_mapping(t_uint256,t_address)": {
        "encoding": "mapping",
        "key": "t_uint256",
        "label": "mapping(uint256 => address)",
        "numberOfBytes": "32",
        "value": "t_address"
      },
      "t_mapping(t_uint256,t_bool)": {
        "encoding": "mapping",
        "key": "t_uint256",
        "label": "mapping(uint256 => bool)",
        "numberOfBytes": "32",
        "value": "t_bool"
      },
      "t_mapping(t_uint256,t_bytes_storage)": {
        "encoding": "mapping",
        "key": "t_uint256",
        "label": "mapping(uint256 => bytes)",
        "numberOfBytes": "32",
        "value": "t_bytes_storage"
      },
      "t_mapping(t_uint256,t_mapping(t_uint256,t_bool))": {
        "encoding": "mapping",
        "key": "t_uint256",
        "label": "mapping(uint256 => mapping(uint256 => bool))",
        "numberOfBytes": "32",
        "value": "t_mapping(t_uint256,t_bool)"
      },
      "t_mapping(t_uint256,t_uint256)": {
        "encoding": "mapping",
        "key": "t_uint256",
        "label": "mapping(uint256 => uint256)",
        "numberOfBytes": "32",
        "value": "t_uint256"
      },
      "t_string_storage": {
        "encoding": "bytes",
        "label": "string",
        "numberOfBytes": "32"
      },
      "t_uint256": {
        "encoding": "inplace",
        "label": "uint256",
        "numberOfBytes": "32"
      },
      "t_uint8": {
        "encoding": "inplace",
        "label": "uint8",
        "numberOfBytes": "1"
      }
    }
  }
}