{
  "address": "0x01F21de015410057C65FE8CB069021e9b3245134",
  "abi": [
    {
      "anonymous": false,
      "inputs": [
        {
          "indexed": true,
          "internalType": "address",
          "name": "user",
          "type": "address"
        },
        {
          "indexed": true,
          "internalType": "uint256",
          "name": "pid",
          "type": "uint256"
        },
        {
          "indexed": false,
          "internalType": "uint256",
          "name": "amount",
          "type": "uint256"
        }
      ],
      "name": "Deposit",
      "type": "event"
    },
    {
      "anonymous": false,
      "inputs": [
        {
          "indexed": true,
          "internalType": "address",
          "name": "user",
          "type": "address"
        },
        {
          "indexed": true,
          "internalType": "uint256",
          "name": "pid",
          "type": "uint256"
        },
        {
          "indexed": false,
          "internalType": "uint256",
          "name": "amount",
          "type": "uint256"
        }
      ],
      "name": "EmergencyWithdraw",
      "type": "event"
    },
    {
      "anonymous": false,
      "inputs": [
        {
          "indexed": false,
          "internalType": "uint8",
          "name": "version",
          "type": "uint8"
        }
      ],
      "name": "Initialized",
      "type": "event"
    },
    {
      "anonymous": false,
      "inputs": [
        {
          "indexed": true,
          "internalType": "address",
          "name": "user",
          "type": "address"
        },
        {
          "indexed": true,
          "internalType": "address",
          "name": "newAddress",
          "type": "address"
        }
      ],
      "name": "SetFeeAddress",
      "type": "event"
    },
    {
      "anonymous": false,
      "inputs": [
        {
          "indexed": true,
          "internalType": "address",
          "name": "user",
          "type": "address"
        },
        {
          "indexed": true,
          "internalType": "uint256",
          "name": "pid",
          "type": "uint256"
        },
        {
          "indexed": false,
          "internalType": "uint256",
          "name": "amount",
          "type": "uint256"
        }
      ],
      "name": "Withdraw",
      "type": "event"
    },
    {
      "inputs": [
        {
          "internalType": "uint256",
          "name": "_allocPoint",
          "type": "uint256"
        },
        {
          "internalType": "contract IERC20",
          "name": "_lpToken",
          "type": "address"
        },
        {
          "internalType": "uint16",
          "name": "_depositFeeBP",
          "type": "uint16"
        }
      ],
      "name": "add",
      "outputs": [],
      "stateMutability": "nonpayable",
      "type": "function"
    },
    {
      "inputs": [],
      "name": "baseToken",
      "outputs": [
        {
          "internalType": "contract IERC20",
          "name": "",
          "type": "address"
        }
      ],
      "stateMutability": "view",
      "type": "function"
    },
    {
      "inputs": [
        {
          "internalType": "uint256",
          "name": "_pid",
          "type": "uint256"
        },
        {
          "internalType": "uint256",
          "name": "_amount",
          "type": "uint256"
        }
      ],
      "name": "deposit",
      "outputs": [],
      "stateMutability": "nonpayable",
      "type": "function"
    },
    {
      "inputs": [
        {
          "internalType": "uint256",
          "name": "_amount",
          "type": "uint256"
        }
      ],
      "name": "distribute",
      "outputs": [],
      "stateMutability": "nonpayable",
      "type": "function"
    },
    {
      "inputs": [
        {
          "internalType": "uint256",
          "name": "_pid",
          "type": "uint256"
        }
      ],
      "name": "emergencyWithdraw",
      "outputs": [],
      "stateMutability": "nonpayable",
      "type": "function"
    },
    {
      "inputs": [],
      "name": "feeAddress",
      "outputs": [
        {
          "internalType": "address",
          "name": "",
          "type": "address"
        }
      ],
      "stateMutability": "view",
      "type": "function"
    },
    {
      "inputs": [],
      "name": "harvestAll",
      "outputs": [],
      "stateMutability": "nonpayable",
      "type": "function"
    },
    {
      "inputs": [
        {
          "internalType": "uint256[]",
          "name": "pids",
          "type": "uint256[]"
        }
      ],
      "name": "harvestMany",
      "outputs": [],
      "stateMutability": "nonpayable",
      "type": "function"
    },
    {
      "inputs": [
        {
          "internalType": "address",
          "name": "_insurancePool",
          "type": "address"
        },
        {
          "internalType": "address",
          "name": "_baseToken",
          "type": "address"
        }
      ],
      "name": "initialize",
      "outputs": [],
      "stateMutability": "nonpayable",
      "type": "function"
    },
    {
      "inputs": [],
      "name": "insurancePool",
      "outputs": [
        {
          "internalType": "contract InsurancePool",
          "name": "",
          "type": "address"
        }
      ],
      "stateMutability": "view",
      "type": "function"
    },
    {
      "inputs": [],
      "name": "owner",
      "outputs": [
        {
          "internalType": "address",
          "name": "",
          "type": "address"
        }
      ],
      "stateMutability": "view",
      "type": "function"
    },
    {
      "inputs": [
        {
          "internalType": "uint256",
          "name": "_pid",
          "type": "uint256"
        },
        {
          "internalType": "address",
          "name": "_user",
          "type": "address"
        }
      ],
      "name": "pendingReward",
      "outputs": [
        {
          "internalType": "uint256",
          "name": "",
          "type": "uint256"
        }
      ],
      "stateMutability": "view",
      "type": "function"
    },
    {
      "inputs": [
        {
          "internalType": "contract IERC20",
          "name": "",
          "type": "address"
        }
      ],
      "name": "poolExistence",
      "outputs": [
        {
          "internalType": "bool",
          "name": "",
          "type": "bool"
        }
      ],
      "stateMutability": "view",
      "type": "function"
    },
    {
      "inputs": [
        {
          "internalType": "uint256",
          "name": "",
          "type": "uint256"
        }
      ],
      "name": "poolInfo",
      "outputs": [
        {
          "internalType": "contract IERC20",
          "name": "lpToken",
          "type": "address"
        },
        {
          "internalType": "uint256",
          "name": "allocPoint",
          "type": "uint256"
        },
        {
          "internalType": "uint256",
          "name": "lastRewardTimestamp",
          "type": "uint256"
        },
        {
          "internalType": "uint256",
          "name": "accRewardPerShare",
          "type": "uint256"
        },
        {
          "internalType": "uint16",
          "name": "depositFeeBP",
          "type": "uint16"
        }
      ],
      "stateMutability": "view",
      "type": "function"
    },
    {
      "inputs": [
        {
          "internalType": "uint256",
          "name": "",
          "type": "uint256"
        }
      ],
      "name": "poolInfoDummyList",
      "outputs": [
        {
          "internalType": "address",
          "name": "",
          "type": "address"
        }
      ],
      "stateMutability": "view",
      "type": "function"
    },
    {
      "inputs": [
        {
          "internalType": "uint256",
          "name": "",
          "type": "uint256"
        }
      ],
      "name": "poolInfoPidList",
      "outputs": [
        {
          "internalType": "uint256",
          "name": "",
          "type": "uint256"
        }
      ],
      "stateMutability": "view",
      "type": "function"
    },
    {
      "inputs": [],
      "name": "poolLength",
      "outputs": [
        {
          "internalType": "uint256",
          "name": "",
          "type": "uint256"
        }
      ],
      "stateMutability": "view",
      "type": "function"
    },
    {
      "inputs": [
        {
          "internalType": "uint256",
          "name": "_pid",
          "type": "uint256"
        },
        {
          "internalType": "bool",
          "name": "emergency",
          "type": "bool"
        }
      ],
      "name": "remove",
      "outputs": [],
      "stateMutability": "nonpayable",
      "type": "function"
    },
    {
      "inputs": [
        {
          "internalType": "uint256",
          "name": "_pid",
          "type": "uint256"
        },
        {
          "internalType": "uint256",
          "name": "_allocPoint",
          "type": "uint256"
        },
        {
          "internalType": "uint16",
          "name": "_depositFeeBP",
          "type": "uint16"
        }
      ],
      "name": "set",
      "outputs": [],
      "stateMutability": "nonpayable",
      "type": "function"
    },
    {
      "inputs": [
        {
          "internalType": "address",
          "name": "_feeAddress",
          "type": "address"
        }
      ],
      "name": "setFeeAddress",
      "outputs": [],
      "stateMutability": "nonpayable",
      "type": "function"
    },
    {
      "inputs": [
        {
          "internalType": "uint256",
          "name": "newTimestamp",
          "type": "uint256"
        }
      ],
      "name": "setStartTimestamp",
      "outputs": [],
      "stateMutability": "nonpayable",
      "type": "function"
    },
    {
      "inputs": [],
      "name": "startTimestamp",
      "outputs": [
        {
          "internalType": "uint256",
          "name": "",
          "type": "uint256"
        }
      ],
      "stateMutability": "view",
      "type": "function"
    },
    {
      "inputs": [],
      "name": "totalAllocPoint",
      "outputs": [
        {
          "internalType": "uint256",
          "name": "",
          "type": "uint256"
        }
      ],
      "stateMutability": "view",
      "type": "function"
    },
    {
      "inputs": [
        {
          "internalType": "uint256",
          "name": "_pid",
          "type": "uint256"
        },
        {
          "internalType": "uint256",
          "name": "_amount",
          "type": "uint256"
        }
      ],
      "name": "updatePool",
      "outputs": [],
      "stateMutability": "nonpayable",
      "type": "function"
    },
    {
      "inputs": [
        {
          "internalType": "uint256",
          "name": "",
          "type": "uint256"
        },
        {
          "internalType": "address",
          "name": "",
          "type": "address"
        }
      ],
      "name": "userInfo",
      "outputs": [
        {
          "internalType": "uint256",
          "name": "amount",
          "type": "uint256"
        },
        {
          "internalType": "uint256",
          "name": "rewardDebt",
          "type": "uint256"
        }
      ],
      "stateMutability": "view",
      "type": "function"
    },
    {
      "inputs": [
        {
          "internalType": "uint256",
          "name": "_pid",
          "type": "uint256"
        },
        {
          "internalType": "uint256",
          "name": "_amount",
          "type": "uint256"
        }
      ],
      "name": "withdraw",
      "outputs": [],
      "stateMutability": "nonpayable",
      "type": "function"
    }
  ],
  "transactionHash": "0x0f8baaf45894523167e2f52c307daa91c5803b5c07095619fcdf54f843f34788",
  "args": [],
  "numDeployments": 1,
  "solcInputHash": "13e8bd079ad6e1fb5cfa36154c755e23",
  "bytecode": "0x6080806040523461001657611b28908161001c8239f35b600080fdfe608060408181526004918236101561001657600080fd5b600092833560e01c918263065392751461104857508163081e3eda146110295781631526fe2714610fc957816317caf6f114610faa57816324bcb38c14610e705781634127535814610e48578163441a3e7014610d1a578163485cc95514610b4e5781635312ea8e14610ac1578163544977ff14610a695781636e1d6e9a14610a1b5781638705fcd4146109795781638da5cb5b146108f35781638ed955b91461083b57816391c05b0b146107a157816393f1a40b1461075557816396ed7f891461073a57816398969e82146106ce578163ab2adc00146106a6578163c44bef75146105a3578163c55dae631461057b578163cbd258b51461053f578163d5f615c61461049c578163dc640ac91461030b578163e2bbb15814610164575063e6fd48bc1461014357600080fd5b34610160578160031936011261016057602090603b549051908152f35b5080fd5b83833461016057610174366112c6565b909161017e6117a3565b828452603860205280842060396020528185203386526020526101b6828620805490600384019164e8d4a51000938491845490611653565b04936101c86001830195865490611500565b806102fb575b5086610216575b505490546101e291611653565b049055519081527f90890809c654f11d6e72a28fa60149770a0d11ec6c92319d6ceb2bb0a4ea1a1560203392a36001805580f35b805486516323b872dd60e01b602082015233602482015230604482015260648082018a905281526001600160a01b0391821660a0820167ffffffffffffffff8111838210176102e75791610276918a9b9c9d9e936101e2999a9b52611842565b8201805461ffff93908b908516156102d0576127106102a085926102c1976102b196541690611653565b0493849254169060355416906117f9565b6102bc8984546114b3565b611500565b81555b889796959493926101d5565b925050506102e0915082546114b3565b81556102c4565b50634e487b7160e01b8c5260418d5260248cfd5b6103059033611a53565b8a6101ce565b90503461049857602091826003193601126104945767ffffffffffffffff9282358481116104905736602382011215610490578084013594851161047d5760059085821b9084519661035f85840189611329565b875283870160248093830101913683116104795783869101915b8383106104695750505050855194875b868110610394578880f35b875181101561045757808561044292861b8a0101516103b16117a3565b808b5260388752878b209060398852888c20338d528852888c20916103ea61040e6003855493019264e8d4a51000928391855490611653565b04926001956103fe87820195865490611500565b80610447575b5054905490611653565b04905588518c81527f90890809c654f11d6e72a28fa60149770a0d11ec6c92319d6ceb2bb0a4ea1a15893392a38055611443565b610389565b6104519033611a53565b38610404565b50634e487b7160e01b88526032905286fd5b8235815291810191869101610379565b8980fd5b634e487b7160e01b865260418452602486fd5b8580fd5b8380fd5b8280fd5b90503461049857816003193601126104985760243590811515820361049457602460206001600160a01b03603454168551928380926337b87c3960e21b825233878301525afa9384156105365750610505936104ff918691610508575b506113f8565b3561150d565b80f35b610529915060203d811161052f575b6105218183611329565b8101906113e0565b386104f9565b503d610517565b513d86823e3d90fd5b5050346101605760203660031901126101605760ff816020936001600160a01b0361056861129f565b168152603c855220541690519015158152f35b5050346101605781600319360112610160576020906001600160a01b03603354169051908152f35b9050346104985760209182600319360112610494578135916024846001600160a01b03603454168451928380926337b87c3960e21b825233878301525afa90811561069c57906105f991879161068557506113f8565b8242108061067a575b15610649575081603b5560365492845b84811061061d578580f35b8061062a610644926112dc565b90549060031b1c8752603883528460028589200155611443565b610612565b83606492519162461bcd60e51b8352820152600d60248201526c185b1c9958591e481cdd185c9d609a1b6044820152fd5b50603b544210610602565b6105299150863d881161052f576105218183611329565b83513d88823e3d90fd5b5050346101605781600319360112610160576020906001600160a01b03603454169051908152f35b90503461049857816003193601126104985761073390600164e8d4a510006107296003866020986106fd611284565b9635815260388a528181209660398b526001600160a01b03838320911682528a52209401548454611653565b0491015490611500565b9051908152f35b83346107525761050561074c366112c6565b90611686565b80fd5b905034610498578160031936011261049857918192610772611284565b9035825260396020526001600160a01b0383832091168252602052206001815491015482519182526020820152f35b905034610498576020366003190112610498578035916001600160a01b0360345416330361080357505060365490825b8281106107dc578380f35b806107f9836107ed6107fe946112dc565b90549060031b1c611686565b611443565b6107d1565b906020606492519162461bcd60e51b83528201526012602482015271139bdd081a5b9cdd5c985b98d9481c1bdbdb60721b6044820152fd5b50503461016057816003193601126101605760375490825b82811061085e578380f35b6108ee9061086a6117a3565b8085526020603881528184872091603981528588203389528152858820926108a66108ba6003865493019264e8d4a51000928391855490611653565b04926001966103fe88820195865490611500565b0490557f90890809c654f11d6e72a28fa60149770a0d11ec6c92319d6ceb2bb0a4ea1a158651918983523392a38055611443565b610853565b919050346104985782600319360112610498576001600160a01b039060208260345416825194858092638da5cb5b60e01b82525afa92831561096f5760209493610940575b505191168152f35b610961919350843d8111610968575b6109598183611329565b810190611361565b9138610938565b503d61094f565b81513d86823e3d90fd5b919050346104985760203660031901126104985761099561129f565b906001600160a01b0392602084603454169160248451809481936337b87c3960e21b835233908301525afa9182156105365750906109d991859161050857506113f8565b16806bffffffffffffffffffffffff60a01b6035541617603555337fd44190acf9d04bdb5d3a1aafff7e6dee8b40b93dfb8c5d3f0eea4b9f4539c3f78380a380f35b9050346104985760203660031901126104985735603654811015610498576036602093527f4a11f94e20a93c79f6ec743a1954ec4fc2c08429ae2122118bf234b2185c81b801549051908152f35b9050346104985760203660031901126104985735603754811015610498576001600160a01b03906037602094527f42a7b7dd785cd69714a189dffb3fd7d7174edc9ece837694ce50f7078f7c31ae0154169051908152f35b905034610498576020366003190112610498576001903591610ae16117a3565b8284526038602052610b1d81852060396020528286203387526020528286209086825495838288955501556001600160a01b03339154166117f9565b519081527fbb757047c2b5f3974fe26b7c10f732e7bce710b0952a71082702781e62ae059560203392a36001805580f35b905034610498578160031936011261049857610b6861129f565b610b70611284565b9084549260ff8460081c161593848095610d0d575b8015610cf6575b15610c9c5760ff198116600117875584610c8b575b5060206001600160a01b03809316836bffffffffffffffffffffffff60a01b958287603454161760345516856033541617603355865192838092638da5cb5b60e01b82525afa908115610c81578691610c63575b501690603554161760355542603b55825490610c1f60ff8360081c16610c1a81611380565b611380565b60018055610c2b578280f35b61ff001916825551600181527f7f26b83ff96e1f2b6a682f133852f6798a09c465da95921460cefb384740249890602090a138808280f35b610c7b915060203d8111610968576109598183611329565b38610bf5565b85513d88823e3d90fd5b61ffff191661010117865538610ba1565b855162461bcd60e51b8152602081840152602e60248201527f496e697469616c697a61626c653a20636f6e747261637420697320616c72656160448201526d191e481a5b9a5d1a585b1a5e995960921b6064820152608490fd5b50303b158015610b8c5750600160ff821614610b8c565b50600160ff821610610b85565b9190503461049857610d2b366112c6565b919092610d366117a3565b8385526038602052818520906039602052828620338752602052828620805491858310610e145750610d7c91610da791600385019164e8d4a51000948591845490611653565b0494610d8e6001830196875490611500565b80610e04575b508780610ddb575b505054905490611653565b049055519081527ff279e6a1f5e320cca91135676d9cb6e44ca8a08c0b88342bcdb1144f6511b56860203392a36001805580f35b610dfd91610dea828554611500565b84556001600160a01b03339154166117f9565b3887610d9c565b610e0e9033611a53565b38610d94565b606490602086519162461bcd60e51b8352820152600e60248201526d1a5b9d985b1a5908185b5bdd5b9d60921b6044820152fd5b5050346101605781600319360112610160576020906001600160a01b03603554169051908152f35b90503461049857606036600319011261049857803591602435610e916112b5565b602460206001600160a01b03603454168551928380926337b87c3960e21b8252338a8301525afa908115610fa05761ffff9291610ed491899161050857506113f8565b16610ee3612710821115611468565b848652603860205260019384848820015493610f0a84610f0587603a54611500565b6114b3565b603a5586885260386020528386828a2001558720019061ffff1982541617905515159081610f97575b50610f3c578280f35b6036548391845b828110610f67575b50505015610f5857808280f35b610f61906114c0565b38808280f35b84610f71826112dc565b90549060031b1c14610f8b57610f8690611443565b610f43565b50915050388080610f4b565b90501538610f33565b84513d89823e3d90fd5b505034610160578160031936011261016057602090603a549051908152f35b91905034610498576020366003190112610498578060a093833581526038602052206001600160a01b038154169260018201549261ffff600284015492600385015494015416938151958652602086015284015260608301526080820152f35b5050346101605781600319360112610160576020906037549051908152f35b8385913461049857606036600319011261049857833590611067611284565b926110706112b5565b6001600160a01b03948386603454166337b87c3960e21b8252338a83015281602460209788935afa90811561127a578792916110b2918a9161125d57506113f8565b1692838752603c815260ff838820541661122e5761ffff809216926110db612710851115611468565b60375496603b54804211600014611228575042915b6110fc88603a546114b3565b603a55868a52603c8452808a20805460ff1916600117905580519360a0850167ffffffffffffffff811186821017611215579160388c94928e97969483528a87528087019b8c528287019485528c6060880196808852608089019b8c5252528b20935116976bffffffffffffffffffffffff60a01b98898554161784555160018401555160028301555160038201550191511661ffff19825416179055603754600160401b8110156112025760018101806037558110156111ef57849550603761050595527f42a7b7dd785cd69714a189dffb3fd7d7174edc9ece837694ce50f7078f7c31ae01918254161790556114c0565b634e487b7160e01b855260328652602485fd5b634e487b7160e01b855260418652602485fd5b634e487b7160e01b8c5260418d5260248cfd5b916110f0565b8760649184519162461bcd60e51b8352820152600a602482015269191d5c1b1a58d85d195960b21b6044820152fd5b6112749150873d891161052f576105218183611329565b8b6104f9565b84513d8a823e3d90fd5b602435906001600160a01b038216820361129a57565b600080fd5b600435906001600160a01b038216820361129a57565b6044359061ffff8216820361129a57565b604090600319011261129a576004359060243590565b6036548110156113135760366000527f4a11f94e20a93c79f6ec743a1954ec4fc2c08429ae2122118bf234b2185c81b80190600090565b634e487b7160e01b600052603260045260246000fd5b90601f8019910116810190811067ffffffffffffffff82111761134b57604052565b634e487b7160e01b600052604160045260246000fd5b9081602091031261129a57516001600160a01b038116810361129a5790565b1561138757565b60405162461bcd60e51b815260206004820152602b60248201527f496e697469616c697a61626c653a20636f6e7472616374206973206e6f74206960448201526a6e697469616c697a696e6760a81b6064820152608490fd5b9081602091031261129a5751801515810361129a5790565b156113ff57565b606460405162461bcd60e51b815260206004820152602060248201527f4f776e61626c653a2063616c6c6572206973206e6f7420746865206f776e65726044820152fd5b60001981146114525760010190565b634e487b7160e01b600052601160045260246000fd5b1561146f57565b606460405162461bcd60e51b815260206004820152602060248201527f696e76616c6964206465706f7369742066656520626173697320706f696e74736044820152fd5b9190820180921161145257565b60365490600160401b82101561134b576114e38260016114fe94016036556112dc565b90919082549060031b600019811b9283911b16911916179055565b565b9190820391821161145257565b60368054801561164d576000838152603860205260408120946001600160a01b038654161561161c57815b838110611549575b50505050505050565b85611553826112dc565b919054600392831b1c14611570575061156b90611443565b611538565b9660019193949596500190815415908115611614575b50611592575b80611540565b8290556000199280840190811161160057906114e36115b36115bf936112dc565b905490881b1c916112dc565b82549081156115ec57508101926115d5846112dc565b81939154921b1b191690555538808080808061158c565b634e487b7160e01b81526031600452602490fd5b634e487b7160e01b83526011600452602483fd5b905038611586565b60405162461bcd60e51b81526020600482015260096024820152681b9bdd08199bdd5b9960ba1b6044820152606490fd5b50505050565b8181029291811591840414171561145257565b8115611670570490565b634e487b7160e01b600052601260045260246000fd5b906000918252603860205260408220906002820192835442111561164d5760249160206001600160a01b03855416604051948580926370a0823160e01b82523060048301525afa928315611798578293611765575b5082158015611759575b611750576116f7906001850154611653565b9064e8d4a510009182810292818404149015171561173c575061172b61173592611726600393603a5490611666565b611666565b92019182546114b3565b9055429055565b634e487b7160e01b81526011600452602490fd5b50505050429055565b506001840154156116e5565b9092506020813d8211611790575b8161178060209383611329565b81010312610160575191386116db565b3d9150611773565b6040513d84823e3d90fd5b6002600154146117b4576002600155565b60405162461bcd60e51b815260206004820152601f60248201527f5265656e7472616e637947756172643a207265656e7472616e742063616c6c006044820152606490fd5b916001600160a01b036040519263a9059cbb60e01b6020850152166024830152604482015260448152608081019181831067ffffffffffffffff84111761134b576114fe926040525b6001600160a01b039092919216604051604081019367ffffffffffffffff948281108682111761134b576040526020928383527f5361666545524332303a206c6f772d6c6576656c2063616c6c206661696c6564848401526000808386829551910182855af1903d15611972573d96871161195e576118e2949596604051906118d488601f19601f8401160183611329565b81528093873d92013e61197f565b805190816118ef57505050565b82806118ff9383010191016113e0565b156119075750565b6084906040519062461bcd60e51b82526004820152602a60248201527f5361666545524332303a204552433230206f7065726174696f6e20646964206e6044820152691bdd081cdd58d8d9595960b21b6064820152fd5b634e487b7160e01b83526041600452602483fd5b91506118e2939495506060915b919290156119e15750815115611993575090565b3b1561199c5790565b60405162461bcd60e51b815260206004820152601d60248201527f416464726573733a2063616c6c20746f206e6f6e2d636f6e74726163740000006044820152606490fd5b8251909150156119f45750805190602001fd5b6040519062461bcd60e51b82528160208060048301528251908160248401526000935b828510611a3a575050604492506000838284010152601f80199101168101030190fd5b8481018201518686016044015293810193859350611a17565b906001600160a01b0391826033541692604051926370a0823160e01b8452306004850152602084602481885afa938415611ae657600094611ab3575b5083811115611aa757506114fe9350603354166117f9565b9250506114fe926117f9565b90936020823d8211611ade575b81611acd60209383611329565b810103126107525750519238611a8f565b3d9150611ac0565b6040513d6000823e3d90fdfea26469706673582212206a6376cb07056afd3875f4c719e6f5da0ec5de2fe059650328c15fbad8d298a164736f6c63430008110033",
  "devdoc": {
    "kind": "dev",
    "methods": {
      "owner()": {
        "details": "Tells the address of the owner",
        "returns": {
          "_0": "the address of the owner"
        }
      }
    },
    "version": 1
  },
  "userdoc": {
    "kind": "user",
    "methods": {},
    "version": 1
  },
  "storageLayout": {
    "storage": [
      {
        "astId": 138,
        "contract": "contracts/InsuranceMasterchef.sol:InsuranceMasterchef",
        "label": "_initialized",
        "offset": 0,
        "slot": "0",
        "type": "t_uint8"
      },
      {
        "astId": 141,
        "contract": "contracts/InsuranceMasterchef.sol:InsuranceMasterchef",
        "label": "_initializing",
        "offset": 1,
        "slot": "0",
        "type": "t_bool"
      },
      {
        "astId": 314,
        "contract": "contracts/InsuranceMasterchef.sol:InsuranceMasterchef",
        "label": "_status",
        "offset": 0,
        "slot": "1",
        "type": "t_uint256"
      },
      {
        "astId": 372,
        "contract": "contracts/InsuranceMasterchef.sol:InsuranceMasterchef",
        "label": "__gap",
        "offset": 0,
        "slot": "2",
        "type": "t_array(t_uint256)49_storage"
      },
      {
        "astId": 10732,
        "contract": "contracts/InsuranceMasterchef.sol:InsuranceMasterchef",
        "label": "baseToken",
        "offset": 0,
        "slot": "51",
        "type": "t_contract(IERC20)6319"
      },
      {
        "astId": 10735,
        "contract": "contracts/InsuranceMasterchef.sol:InsuranceMasterchef",
        "label": "insurancePool",
        "offset": 0,
        "slot": "52",
        "type": "t_contract(InsurancePool)14108"
      },
      {
        "astId": 10737,
        "contract": "contracts/InsuranceMasterchef.sol:InsuranceMasterchef",
        "label": "feeAddress",
        "offset": 0,
        "slot": "53",
        "type": "t_address"
      },
      {
        "astId": 10740,
        "contract": "contracts/InsuranceMasterchef.sol:InsuranceMasterchef",
        "label": "poolInfoPidList",
        "offset": 0,
        "slot": "54",
        "type": "t_array(t_uint256)dyn_storage"
      },
      {
        "astId": 10743,
        "contract": "contracts/InsuranceMasterchef.sol:InsuranceMasterchef",
        "label": "poolInfoDummyList",
        "offset": 0,
        "slot": "55",
        "type": "t_array(t_address)dyn_storage"
      },
      {
        "astId": 10748,
        "contract": "contracts/InsuranceMasterchef.sol:InsuranceMasterchef",
        "label": "poolInfo",
        "offset": 0,
        "slot": "56",
        "type": "t_mapping(t_uint256,t_struct(PoolInfo)10729_storage)"
      },
      {
        "astId": 10755,
        "contract": "contracts/InsuranceMasterchef.sol:InsuranceMasterchef",
        "label": "userInfo",
        "offset": 0,
        "slot": "57",
        "type": "t_mapping(t_uint256,t_mapping(t_address,t_struct(UserInfo)10717_storage))"
      },
      {
        "astId": 10757,
        "contract": "contracts/InsuranceMasterchef.sol:InsuranceMasterchef",
        "label": "totalAllocPoint",
        "offset": 0,
        "slot": "58",
        "type": "t_uint256"
      },
      {
        "astId": 10759,
        "contract": "contracts/InsuranceMasterchef.sol:InsuranceMasterchef",
        "label": "startTimestamp",
        "offset": 0,
        "slot": "59",
        "type": "t_uint256"
      },
      {
        "astId": 10916,
        "contract": "contracts/InsuranceMasterchef.sol:InsuranceMasterchef",
        "label": "poolExistence",
        "offset": 0,
        "slot": "60",
        "type": "t_mapping(t_contract(IERC20)6319,t_bool)"
      }
    ],
    "types": {
      "t_address": {
        "encoding": "inplace",
        "label": "address",
        "numberOfBytes": "20"
      },
      "t_array(t_address)dyn_storage": {
        "base": "t_address",
        "encoding": "dynamic_array",
        "label": "address[]",
        "numberOfBytes": "32"
      },
      "t_array(t_uint256)49_storage": {
        "base": "t_uint256",
        "encoding": "inplace",
        "label": "uint256[49]",
        "numberOfBytes": "1568"
      },
      "t_array(t_uint256)dyn_storage": {
        "base": "t_uint256",
        "encoding": "dynamic_array",
        "label": "uint256[]",
        "numberOfBytes": "32"
      },
      "t_bool": {
        "encoding": "inplace",
        "label": "bool",
        "numberOfBytes": "1"
      },
      "t_contract(IERC20)6319": {
        "encoding": "inplace",
        "label": "contract IERC20",
        "numberOfBytes": "20"
      },
      "t_contract(InsurancePool)14108": {
        "encoding": "inplace",
        "label": "contract InsurancePool",
        "numberOfBytes": "20"
      },
      "t_mapping(t_address,t_struct(UserInfo)10717_storage)": {
        "encoding": "mapping",
        "key": "t_address",
        "label": "mapping(address => struct InsuranceMasterchef.UserInfo)",
        "numberOfBytes": "32",
        "value": "t_struct(UserInfo)10717_storage"
      },
      "t_mapping(t_contract(IERC20)6319,t_bool)": {
        "encoding": "mapping",
        "key": "t_contract(IERC20)6319",
        "label": "mapping(contract IERC20 => bool)",
        "numberOfBytes": "32",
        "value": "t_bool"
      },
      "t_mapping(t_uint256,t_mapping(t_address,t_struct(UserInfo)10717_storage))": {
        "encoding": "mapping",
        "key": "t_uint256",
        "label": "mapping(uint256 => mapping(address => struct InsuranceMasterchef.UserInfo))",
        "numberOfBytes": "32",
        "value": "t_mapping(t_address,t_struct(UserInfo)10717_storage)"
      },
      "t_mapping(t_uint256,t_struct(PoolInfo)10729_storage)": {
        "encoding": "mapping",
        "key": "t_uint256",
        "label": "mapping(uint256 => struct InsuranceMasterchef.PoolInfo)",
        "numberOfBytes": "32",
        "value": "t_struct(PoolInfo)10729_storage"
      },
      "t_struct(PoolInfo)10729_storage": {
        "encoding": "inplace",
        "label": "struct InsuranceMasterchef.PoolInfo",
        "members": [
          {
            "astId": 10720,
            "contract": "contracts/InsuranceMasterchef.sol:InsuranceMasterchef",
            "label": "lpToken",
            "offset": 0,
            "slot": "0",
            "type": "t_contract(IERC20)6319"
          },
          {
            "astId": 10722,
            "contract": "contracts/InsuranceMasterchef.sol:InsuranceMasterchef",
            "label": "allocPoint",
            "offset": 0,
            "slot": "1",
            "type": "t_uint256"
          },
          {
            "astId": 10724,
            "contract": "contracts/InsuranceMasterchef.sol:InsuranceMasterchef",
            "label": "lastRewardTimestamp",
            "offset": 0,
            "slot": "2",
            "type": "t_uint256"
          },
          {
            "astId": 10726,
            "contract": "contracts/InsuranceMasterchef.sol:InsuranceMasterchef",
            "label": "accRewardPerShare",
            "offset": 0,
            "slot": "3",
            "type": "t_uint256"
          },
          {
            "astId": 10728,
            "contract": "contracts/InsuranceMasterchef.sol:InsuranceMasterchef",
            "label": "depositFeeBP",
            "offset": 0,
            "slot": "4",
            "type": "t_uint16"
          }
        ],
        "numberOfBytes": "160"
      },
      "t_struct(UserInfo)10717_storage": {
        "encoding": "inplace",
        "label": "struct InsuranceMasterchef.UserInfo",
        "members": [
          {
            "astId": 10714,
            "contract": "contracts/InsuranceMasterchef.sol:InsuranceMasterchef",
            "label": "amount",
            "offset": 0,
            "slot": "0",
            "type": "t_uint256"
          },
          {
            "astId": 10716,
            "contract": "contracts/InsuranceMasterchef.sol:InsuranceMasterchef",
            "label": "rewardDebt",
            "offset": 0,
            "slot": "1",
            "type": "t_uint256"
          }
        ],
        "numberOfBytes": "64"
      },
      "t_uint16": {
        "encoding": "inplace",
        "label": "uint16",
        "numberOfBytes": "2"
      },
      "t_uint256": {
        "encoding": "inplace",
        "label": "uint256",
        "numberOfBytes": "32"
      },
      "t_uint8": {
        "encoding": "inplace",
        "label": "uint8",
        "numberOfBytes": "1"
      }
    }
  }
}