{
  "address": "0x7688E389C0dE9106123f56c11254C7e4c2AA3bd4",
  "abi": [
    {
      "inputs": [
        {
          "internalType": "address",
          "name": "_poolImplementation",
          "type": "address"
        }
      ],
      "stateMutability": "nonpayable",
      "type": "constructor"
    },
    {
      "anonymous": false,
      "inputs": [
        {
          "indexed": true,
          "internalType": "address",
          "name": "owner",
          "type": "address"
        },
        {
          "indexed": true,
          "internalType": "address",
          "name": "pool",
          "type": "address"
        },
        {
          "indexed": false,
          "internalType": "uint256",
          "name": "expiration",
          "type": "uint256"
        }
      ],
      "name": "DeployPool",
      "type": "event"
    },
    {
      "anonymous": false,
      "inputs": [
        {
          "indexed": true,
          "internalType": "address",
          "name": "previousOwner",
          "type": "address"
        },
        {
          "indexed": true,
          "internalType": "address",
          "name": "newOwner",
          "type": "address"
        }
      ],
      "name": "OwnershipTransferred",
      "type": "event"
    },
    {
      "anonymous": false,
      "inputs": [
        {
          "indexed": false,
          "internalType": "uint256",
          "name": "newFeeBps",
          "type": "uint256"
        }
      ],
      "name": "UpdateBuyerDevFee",
      "type": "event"
    },
    {
      "anonymous": false,
      "inputs": [
        {
          "indexed": false,
          "internalType": "uint256",
          "name": "newFeeBps",
          "type": "uint256"
        }
      ],
      "name": "UpdateInvestorDevFee",
      "type": "event"
    },
    {
      "anonymous": false,
      "inputs": [
        {
          "indexed": false,
          "internalType": "uint256",
          "name": "newFeeBps",
          "type": "uint256"
        }
      ],
      "name": "UpdateMaxBuyerFee",
      "type": "event"
    },
    {
      "inputs": [],
      "name": "buyerDevFee",
      "outputs": [
        {
          "internalType": "uint256",
          "name": "",
          "type": "uint256"
        }
      ],
      "stateMutability": "view",
      "type": "function"
    },
    {
      "inputs": [
        {
          "internalType": "address",
          "name": "_owner",
          "type": "address"
        },
        {
          "internalType": "contract IERC20",
          "name": "_baseToken",
          "type": "address"
        },
        {
          "internalType": "uint256",
          "name": "_buyPercentageFee",
          "type": "uint256"
        },
        {
          "internalType": "uint256",
          "name": "_depositPercentageFee",
          "type": "uint256"
        },
        {
          "internalType": "uint256",
          "name": "_depositLimit",
          "type": "uint256"
        },
        {
          "internalType": "uint256",
          "name": "_distributionRatio",
          "type": "uint256"
        },
        {
          "internalType": "uint256",
          "name": "_masterchefRatio",
          "type": "uint256"
        },
        {
          "internalType": "uint256",
          "name": "_expiration",
          "type": "uint256"
        },
        {
          "internalType": "string",
          "name": "_tokenName",
          "type": "string"
        },
        {
          "internalType": "string",
          "name": "_tokenSymbol",
          "type": "string"
        }
      ],
      "name": "deployPool",
      "outputs": [
        {
          "internalType": "contract InsurancePool",
          "name": "pool",
          "type": "address"
        }
      ],
      "stateMutability": "nonpayable",
      "type": "function"
    },
    {
      "inputs": [],
      "name": "investorDevFee",
      "outputs": [
        {
          "internalType": "uint256",
          "name": "",
          "type": "uint256"
        }
      ],
      "stateMutability": "view",
      "type": "function"
    },
    {
      "inputs": [],
      "name": "maxBuyerFee",
      "outputs": [
        {
          "internalType": "uint256",
          "name": "",
          "type": "uint256"
        }
      ],
      "stateMutability": "view",
      "type": "function"
    },
    {
      "inputs": [],
      "name": "owner",
      "outputs": [
        {
          "internalType": "address",
          "name": "",
          "type": "address"
        }
      ],
      "stateMutability": "view",
      "type": "function"
    },
    {
      "inputs": [],
      "name": "poolImplementation",
      "outputs": [
        {
          "internalType": "address",
          "name": "",
          "type": "address"
        }
      ],
      "stateMutability": "view",
      "type": "function"
    },
    {
      "inputs": [],
      "name": "renounceOwnership",
      "outputs": [],
      "stateMutability": "nonpayable",
      "type": "function"
    },
    {
      "inputs": [
        {
          "internalType": "address",
          "name": "newOwner",
          "type": "address"
        }
      ],
      "name": "transferOwnership",
      "outputs": [],
      "stateMutability": "nonpayable",
      "type": "function"
    },
    {
      "inputs": [
        {
          "internalType": "uint256",
          "name": "feeBps",
          "type": "uint256"
        }
      ],
      "name": "updateBuyerDevFee",
      "outputs": [],
      "stateMutability": "nonpayable",
      "type": "function"
    },
    {
      "inputs": [
        {
          "internalType": "uint256",
          "name": "feeBps",
          "type": "uint256"
        }
      ],
      "name": "updateInvestorDevFee",
      "outputs": [],
      "stateMutability": "nonpayable",
      "type": "function"
    },
    {
      "inputs": [
        {
          "internalType": "uint256",
          "name": "feeBps",
          "type": "uint256"
        }
      ],
      "name": "updateMaxBuyerFee",
      "outputs": [],
      "stateMutability": "nonpayable",
      "type": "function"
    }
  ],
  "transactionHash": "0xac9ac9e39be7ef7a1e44641e736c9a0388f6e26fc03d043b8bb73745c1f0525c",
  "args": [
    "0x8eA8E4cA88eF06191Dc42021ae009972527b3749"
  ],
  "numDeployments": 1,
  "solcInputHash": "13e8bd079ad6e1fb5cfa36154c755e23",
  "bytecode": "0x60a0346100bf57601f61085f38819003918201601f19168301916001600160401b038311848410176100c4578084926020946040528339810103126100bf57516001600160a01b039081811681036100bf576000543360018060a01b0319821617600055604051923391167f8be0079c531659141344cd1fd0a4f28419497f9722a3daafe3b4186f6b6457e0600080a3610fa060015560c86002556107d060035560805261078490816100db823960805181818161021001526103f50152f35b600080fd5b634e487b7160e01b600052604160045260246000fdfe6040608081526004908136101561001557600080fd5b600091823560e01c806301c88f5d1461058d5780632b11b0391461056e57806350cabd231461054f5780636770ce8b146104f4578063715018a61461049a5780637b0786e71461043f5780638da5cb5b14610419578063cefa7799146103d5578063dabc945914610182578063ec5a2b8c1461015f5763f2fde38b1461009a57600080fd5b3461015b57602036600319011261015b576100b36105e8565b906100bc61067c565b6001600160a01b0380921692831561010957505082546001600160a01b0319811683178455167f8be0079c531659141344cd1fd0a4f28419497f9722a3daafe3b4186f6b6457e08380a380f35b906020608492519162461bcd60e51b8352820152602660248201527f4f776e61626c653a206e6577206f776e657220697320746865207a65726f206160448201526564647265737360d01b6064820152fd5b8280fd5b50503461017e578160031936011261017e576020906002549051908152f35b5080fd5b50903461015b57610140906003199382853601126103d2576101a26105e8565b90602435906001600160a01b039687831680930361017e5760e435936101049687359267ffffffffffffffff938481116103ce576101e39036908c01610603565b6101249081358681116103ca578c6101fd91369101610603565b936e5af43d82803e903d91602b57fd5bf37f0000000000000000000000000000000000000000000000000000000000000000763d602d80600a3d3981f3363d3d373d3d3d363d7300000062ffffff8260881c16178a5260781b176020528d603760098af0169b8c15610387578c3b1561038357918d9e959391899795938d9e9f9d519b8c98899863f7e47dbf60e01b8a52169e8f90890152602488015260443560448801526064356064880152608435608488015260a43560a488015260c43560c48801528c60e488015286015261014485016102d9916106d4565b9184830301908401526102eb916106d4565b0381838b5af1801561037957610331575b6020878781887f6bebb8639ac71052347ff20862ca2dd3873eae7edb47d4cc9452af6a7b7fcdd7858a8551908152a351908152f35b821161036657508352602094507f6bebb8639ac71052347ff20862ca2dd3873eae7edb47d4cc9452af6a7b7fcdd785856102fc565b634e487b7160e01b815260418752602490fd5b86513d84823e3d90fd5b8880fd5b60648e60208e519162461bcd60e51b8352820152601660248201527f455243313136373a20637265617465206661696c6564000000000000000000006044820152fd5b8780fd5b8580fd5b80fd5b50503461017e578160031936011261017e57602090516001600160a01b037f0000000000000000000000000000000000000000000000000000000000000000168152f35b50503461017e578160031936011261017e576001600160a01b0360209254169051908152f35b503461015b57602036600319011261015b577f6f2218311c99919365a86d8dd0b9f1b51d1b109f6966fb5f261b502334f99fac91602091359061048061067c565b61048e600354831115610714565b8160025551908152a180f35b83346103d257806003193601126103d2576104b361067c565b80546001600160a01b03198116825581906001600160a01b03167f8be0079c531659141344cd1fd0a4f28419497f9722a3daafe3b4186f6b6457e08280a380f35b503461015b57602036600319011261015b577f05effee4158a9902afb9e1064ab8da509c714e2b14a2956f37fb1029103d42fa91602091359061053561067c565b610543612710831115610714565b8160015551908152a180f35b50503461017e578160031936011261017e576020906001549051908152f35b50503461017e578160031936011261017e576020906003549051908152f35b503461015b57602036600319011261015b577fc02cdd006a7f2dc145801066c9f425d52f5080cea37875a4c89f6103d1d4a1c59160209135906105ce61067c565b6105dc612710831115610714565b8160035551908152a180f35b600435906001600160a01b03821682036105fe57565b600080fd5b81601f820112156105fe5780359067ffffffffffffffff928383116106665760405193601f8401601f19908116603f011685019081118582101761066657604052828452602083830101116105fe57816000926020809301838601378301015290565b634e487b7160e01b600052604160045260246000fd5b6001600160a01b0360005416330361069057565b606460405162461bcd60e51b815260206004820152602060248201527f4f776e61626c653a2063616c6c6572206973206e6f7420746865206f776e65726044820152fd5b919082519283825260005b848110610700575050826000602080949584010152601f8019910116010190565b6020818301810151848301820152016106df565b1561071b57565b60405162461bcd60e51b815260206004820152600b60248201526a496e76616c69642066656560a81b6044820152606490fdfea264697066735822122096dda8be3ace8697b54f15b8019008a11f994d074c912fde14fa4361ce99ff9a64736f6c63430008110033",
  "devdoc": {
    "kind": "dev",
    "methods": {
      "owner()": {
        "details": "Returns the address of the current owner."
      },
      "renounceOwnership()": {
        "details": "Leaves the contract without owner. It will not be possible to call `onlyOwner` functions anymore. Can only be called by the current owner. NOTE: Renouncing ownership will leave the contract without an owner, thereby removing any functionality that is only available to the owner."
      },
      "transferOwnership(address)": {
        "details": "Transfers ownership of the contract to a new account (`newOwner`). Can only be called by the current owner."
      }
    },
    "version": 1
  },
  "userdoc": {
    "kind": "user",
    "methods": {},
    "version": 1
  },
  "storageLayout": {
    "storage": [
      {
        "astId": 4054,
        "contract": "contracts/InsuranceFactory.sol:InsuranceFactory",
        "label": "_owner",
        "offset": 0,
        "slot": "0",
        "type": "t_address"
      },
      {
        "astId": 10509,
        "contract": "contracts/InsuranceFactory.sol:InsuranceFactory",
        "label": "investorDevFee",
        "offset": 0,
        "slot": "1",
        "type": "t_uint256"
      },
      {
        "astId": 10512,
        "contract": "contracts/InsuranceFactory.sol:InsuranceFactory",
        "label": "buyerDevFee",
        "offset": 0,
        "slot": "2",
        "type": "t_uint256"
      },
      {
        "astId": 10515,
        "contract": "contracts/InsuranceFactory.sol:InsuranceFactory",
        "label": "maxBuyerFee",
        "offset": 0,
        "slot": "3",
        "type": "t_uint256"
      }
    ],
    "types": {
      "t_address": {
        "encoding": "inplace",
        "label": "address",
        "numberOfBytes": "20"
      },
      "t_uint256": {
        "encoding": "inplace",
        "label": "uint256",
        "numberOfBytes": "32"
      }
    }
  }
}